:020000040000fa
:080000000054040000000000a0
:020000040000fa
:04000800bc560000e2
:020000040000fa
:04000c00bc560000de
:020000040000fa
:04001000bc560000da
:020000040000fa
:04001400bc560000d6
:020000040000fa
:04001800bc560000d2
:020000040000fa
:04001c00bc560000ce
:020000040000fa
:04002000bc560000ca
:020000040000fa
:04002400bc560000c6
:020000040000fa
:04002800bc560000c2
:020000040000fa
:04002c00bc560000be
:020000040000fa
:04003000bc560000ba
:020000040000fa
:04003400bc560000b6
:020000040000fa
:04003800bc560000b2
:020000040000fa
:04003c00bc560000ae
:020000040000fa
:04004000bc560000aa
:020000040000fa
:04004400bc560000a6
:020000040000fa
:04004800bc560000a2
:020000040000fa
:04004c00bc5600009e
:020000040000fa
:04005000bc5600009a
:020000040000fa
:040054004055000013
:020000040000fa
:04005800005500004f
:020000040000fa
:04005c00bc5600008e
:020000040000fa
:04006000bc5600008a
:020000040000fa
:04006400bc56000086
:020000040000fa
:04006800bc56000082
:020000040000fa
:04006c00bc5600007e
:020000040000fa
:04007000bc5600007a
:020000040000fa
:04007400bc56000076
:020000040000fa
:04007800bc56000072
:020000040000fa
:04007c00bc5600006e
:020000040000fa
:04008000bc5600006a
:020000040000fa
:04008400bc56000066
:020000040000fa
:04008800bc56000062
:020000040000fa
:04008c00bc5600005e
:020000040000fa
:04009000bc5600005a
:020000040000fa
:04009400e054000034
:020000040000fa
:04009800bc56000052
:020000040000fa
:04009c00bc5600004e
:020000040000fa
:0400a000bc5600004a
:020000040000fa
:0400a400bc56000046
:020000040000fa
:0400a800bc56000042
:020000040000fa
:0400ac00bc5600003e
:020000040000fa
:0400b000bc5600003a
:020000040000fa
:0400b400bc56000036
:020000040000fa
:0400b800bc56000032
:020000040000fa
:0400bc00bc5600002e
:020000040000fa
:0400c000bc5600002a
:020000040000fa
:0400c400bc56000026
:020000040000fa
:0400c800bc56000022
:020000040000fa
:0400cc00bc5600001e
:020000040000fa
:0400d000bc5600001a
:020000040000fa
:0400d400bc56000016
:020000040000fa
:0400d800bc56000012
:020000040000fa
:0400dc00bc5600000e
:020000040000fa
:0400e000bc5600000a
:020000040000fa
:0400e400bc56000006
:020000040000fa
:0400e800bc56000002
:020000040000fa
:0400ec007655000045
:020000040000fa
:0400f000ee550000c9
:020000040000fa
:0400f400bc560000f6
:020000040000fa
:0400f800bc560000f2
:020000040000fa
:0400fc00bc560000ee
:020000040000fa
:04010000bc560000e9
:020000040000fa
:04010400bc560000e5
:020000040000fa
:04010800bc560000e1
:020000040000fa
:04010c00bc560000dd
:020000040000fa
:04011000bc560000d9
:020000040000fa
:04011400bc560000d5
:020000040000fa
:04011800bc560000d1
:020000040000fa
:04011c00bc560000cd
:020000040000fa
:04012000bc560000c9
:020000040000fa
:04012400bc560000c5
:020000040000fa
:04012800bc560000c1
:020000040000fa
:04012c00bc560000bd
:020000040000fa
:04013000bc560000b9
:020000040000fa
:04013400bc560000b5
:020000040000fa
:04013800bc560000b1
:020000040000fa
:04013c00bc560000ad
:020000040000fa
:04014000bc560000a9
:020000040000fa
:04014400bc560000a5
:020000040000fa
:04014800bc560000a1
:020000040000fa
:04020800bc560000e0
:020000040000fa
:04020c00bc560000dc
:020000040000fa
:04021000bc560000d8
:020000040000fa
:04021400bc560000d4
:020000040000fa
:04021800bc560000d0
:020000040000fa
:04021c00bc560000cc
:020000040000fa
:04022000bc560000c8
:020000040000fa
:04022400bc560000c4
:020000040000fa
:04022800bc560000c0
:020000040000fa
:04022c00bc560000bc
:020000040000fa
:04023000bc560000b8
:020000040000fa
:04023400bc560000b4
:020000040000fa
:04023800bc560000b0
:020000040000fa
:04023c00bc560000ac
:020000040000fa
:04024000bc560000a8
:020000040000fa
:04024400bc560000a4
:020000040000fa
:04024800bc560000a0
:020000040000fa
:04024c00bc5600009c
:020000040000fa
:04025000bc56000098
:020000040000fa
:040254004055000011
:020000040000fa
:04025800005500004d
:020000040000fa
:04025c00bc5600008c
:020000040000fa
:04026000bc56000088
:020000040000fa
:04026400bc56000084
:020000040000fa
:04026800bc56000080
:020000040000fa
:04026c00bc5600007c
:020000040000fa
:04027000bc56000078
:020000040000fa
:04027400bc56000074
:020000040000fa
:04027800bc56000070
:020000040000fa
:04027c00bc5600006c
:020000040000fa
:04028000bc56000068
:020000040000fa
:04028400bc56000064
:020000040000fa
:04028800bc56000060
:020000040000fa
:04028c00bc5600005c
:020000040000fa
:04029000bc56000058
:020000040000fa
:04029400e054000032
:020000040000fa
:04029800bc56000050
:020000040000fa
:04029c00bc5600004c
:020000040000fa
:0402a000bc56000048
:020000040000fa
:0402a400bc56000044
:020000040000fa
:0402a800bc56000040
:020000040000fa
:0402ac00bc5600003c
:020000040000fa
:0402b000bc56000038
:020000040000fa
:0402b400bc56000034
:020000040000fa
:0402b800bc56000030
:020000040000fa
:0402bc00bc5600002c
:020000040000fa
:0402c000bc56000028
:020000040000fa
:0402c400bc56000024
:020000040000fa
:0402c800bc56000020
:020000040000fa
:0402cc00bc5600001c
:020000040000fa
:0402d000bc56000018
:020000040000fa
:0402d400bc56000014
:020000040000fa
:0402d800bc56000010
:020000040000fa
:0402dc00bc5600000c
:020000040000fa
:0402e000bc56000008
:020000040000fa
:0402e400bc56000004
:020000040000fa
:0402e800bc56000000
:020000040000fa
:0402ec007655000043
:020000040000fa
:0402f000ee550000c7
:020000040000fa
:0402f400bc560000f4
:020000040000fa
:0402f800bc560000f0
:020000040000fa
:0402fc00bc560000ec
:020000040000fa
:04030000bc560000e7
:020000040000fa
:04030400bc560000e3
:020000040000fa
:04030800bc560000df
:020000040000fa
:04030c00bc560000db
:020000040000fa
:04031000bc560000d7
:020000040000fa
:04031400bc560000d3
:020000040000fa
:04031800bc560000cf
:020000040000fa
:04031c00bc560000cb
:020000040000fa
:04032000bc560000c7
:020000040000fa
:04032400bc560000c3
:020000040000fa
:04032800bc560000bf
:020000040000fa
:04032c00bc560000bb
:020000040000fa
:04033000bc560000b7
:020000040000fa
:04033400bc560000b3
:020000040000fa
:04033800bc560000af
:020000040000fa
:04033c00bc560000ab
:020000040000fa
:04034000bc560000a7
:020000040000fa
:04034400bc560000a3
:020000040000fa
:04034800bc5600009f
:020000040000fa
:100400000000fa00004180000080fa0000000600b1
:100410000000fa00704180000080fa000000060031
:100420000000fa0000022800f0088800a00f200059
:10043000d00888009760a8000080fa00000006003d
:100440000000fa002c03a800c002a9002c23a80079
:10045000c022a900c042a9000080fa0000000600e6
:100460000600fa00000f78000e80e800010878000e
:100470006400470002087800c202a8009e007800cd
:10048000114288000e80e800900078002142880028
:1004900064004700900078003142880000408000ee
:1004a0001140800040428800514288000080fa00dc
:1004b000000006000000fa00204280000000e0007a
:1004c0002a003200204280006101b80040428000d2
:1004d00051428000020140008381480000408000ba
:1004e00011408000800f5100818f590013003100ae
:1004f000304280000000e0000700320030428000ff
:100500000000e90030428800304280000000e00036
:1005100001003a004428ef00204280000000e00083
:1005200012003200c202a80000408000114080008a
:1005300040428800514288000c0037001042800081
:100540006101b80040428000514280000201400039
:10055000838148000040800011408000800f5100de
:10056000818f590001003100c202a9000080fa0009
:10057000000006000000fa000080fa0000000600fb
:100580000000fa000080fa00000006001600fa00e1
:10059000f400470080087800640f47008000eb00fb
:1005a0000e80e800010878000e0037007400470054
:1005b000100078000080e8009000780010c0b300c0
:1005c000010001009e007800804878001e0fe800be
:1005d0000e80e800100078008000e8000e80e8003f
:1005e000010878000e80e80010007800ef0f50003e
:1005f00007003c00740047001000780064004000d1
:1006000010007800000001000000e000e7ff3a0061
:100610009e0078000040eb008048780064004700ae
:10062000693707000080fa00000006001600fa0093
:10063000f400470080087800640f47008000eb005a
:100640000e80e800010878000e00370074004700b3
:10065000100078000080e8009000780010c0b3001f
:10066000010001009e007800804878001e0fe8001d
:100670000e80e800100078008000e8000e80e8009e
:10068000010878000e80e80010007800ef0f50009d
:1006900007003c0074004700100078006400400030
:1006a00010007800000001000000e000e7ff3a00c1
:1006b0009e0078000040eb0080487800640047000e
:1006c000920a07000080fb008000eb00752a0700fb
:1006d000172a0700004078000080fa00000006009a
:1006e0001600fa00f400470080087800640f470005
:1006f0008000eb000e80e800010878000e00370053
:1007000074004700100078000080e8009000780036
:1007100010c0b300010001009e00780080487800fe
:100720001e0fe8000e80e800100078008000e8004e
:100730000e80e800010878000e80e80010007800c4
:10074000ef0f500007003c007400470010007800d5
:100750006400400010007800000001000000e0008c
:10076000e7ff3a009e0078000040eb0080487800e8
:10077000640047006c0a07008000eb00492a07006c
:10078000eb290700000078000080fa000000060056
:100790001600fa00f400470080087800640f470054
:1007a0008000eb000e80e800010878000e003700a2
:1007b00074004700100078000080e8009000780086
:1007c00010c0b300010001009e007800804878004e
:1007d0001e0fe8000e80e800100078008000e8009e
:1007e0000e80e800010878000e80e8001000780014
:1007f000ef0f500007003c00740047001000780025
:100800006400400010007800000001000000e000db
:10081000e7ff3a009e0078000040eb008048780037
:1008200064004700460a07001e2a0700c029070087
:100830000080fa00000006001600fa00f4004700ed
:1008400080087800640f47008000eb000e80e8000d
:10085000010878000e00370074004700100078008f
:100860000080e8009000780010c0b3000100010093
:100870009e007800804878001e0fe8000e80e80097
:10088000100078008000e8000e80e8000108780081
:100890000e80e80010007800ef0f500007003c00c9
:1008a00074004700100078006400400010007800d9
:1008b000000001000000e000e7ff3a009e00780021
:1008c0000040eb008048780064004700220a0700df
:1008d000c5290700752907000080fa0000000600fe
:1008e0001600fa00f400470080087800640f470003
:1008f0008000eb000e80e800010878000e00370051
:1009000074004700100078000080e8009000780034
:1009100010c0b300010001009e00780080487800fc
:100920001e0fe8000e80e800100078008000e8004c
:100930000e80e800010878000e80e80010007800c2
:10094000ef0f500007003c007400470010007800d3
:100950006400400010007800000001000000e0008a
:10096000e7ff3a009e0078000040eb0080487800e6
:10097000640047009d0a07000000fb00cf80de00f6
:100980009629070028290700004078000080fa0017
:10099000000006001600fa00f40047008008780006
:1009a000640f47008000eb000e80e800010878002b
:1009b0000e00370074004700100078000080e80047
:1009c0009000780010c0b300010001009e00780084
:1009d000804878001e0fe8000e80e80010007800c4
:1009e0008000e8000e80e800010878000e80e80032
:1009f00010007800ef0f500007003c007400470023
:100a00001000780064004000100078000000010031
:100a10000000e000e7ff3a009e0078000040eb0095
:100a20008048780064004700770a0700cf80de0026
:100a30006a290700fc280700000078000080fa00ff
:100a4000000006001600fa00f40047008008780055
:100a5000640f47008000eb000e80e800010878007a
:100a60000e00370074004700100078000080e80096
:100a70009000780010c0b300010001009e007800d3
:100a8000804878001e0fe8000e80e8001000780013
:100a90008000e8000e80e800010878000e80e80081
:100aa00010007800ef0f500007003c007400470072
:100ab0001000780064004000100078000000010081
:100ac0000000e000e7ff3a009e0078000040eb00e5
:100ad0008048780064004700510a07003f2907005a
:100ae000d12807000080fa00000006001600fa0076
:100af000f400470080087800640f47008000eb0096
:100b00000e80e800010878000e00370074004700ee
:100b1000100078000080e8009000780010c0b3005a
:100b2000010001009e007800804878001e0fe80058
:100b30000e80e800100078008000e8000e80e800d9
:100b4000010878000e80e80010007800ef0f5000d8
:100b500007003c007400470010007800640040006b
:100b600010007800000001000000e000e7ff3a00fc
:100b70009e0078000040eb00804878006400470049
:100b80002d0a0700052907007e2807000080fa00cb
:100b9000000006000000fa002162a8002122a8003f
:100ba0002102a9000080fa00000006000200fa00fd
:100bb000004f78001e407800e14f500006003a00d8
:100bc00010c0b30016e8b7002162a9002122a800d6
:100bd0002102a900040037001668ef002162a90075
:100be0002122a9002102a9000080fa0000000600cd
:100bf0000200fa00004f78001e4078000004e00078
:100c00000500320023c2a8002082a80010c0b30053
:100c100015e8b7000300370023c2a9002082a9000d
:100c20001568ef000080fa00000006000000fa00de
:100c30000628ef000828ef000a28ef000c28ef0034
:100c40000080fa00000006000000fa000e28ef0005
:100c50001028ef001228ef000080fa0000000600c4
:100c60000200fa00004f780051408000f01f200081
:100c7000808f500017003e003140800040892000e6
:100c8000010040001e487800304080000000e8006d
:100c900030408800504080000000e800504088004c
:100ca0001e407800ea4f500003003a006040800088
:100cb0000000e800604088003140800000202000f3
:100cc000808f500001003a000628ef0010c0b300ea
:100cd00004003700604080000000e80060408800a9
:100ce0000040eb000080fa00000006000200fa005d
:100cf000004f780091408000f01f2000808f50004e
:100d00001e003e009580a9007140800040a920008f
:100d1000010040001e487800704080000000e8009c
:100d200070408800904080000000e80090408800fb
:100d30007140800000202000808f500001003a00a8
:100d40000e28ef00111180000020200000806000bc
:100d50000000e00003003a00420007000080fb00b2
:100d600020118800904080000000e00002003a005e
:100d700010c0b30004e8b7009580a8000080fa0016
:100d8000000006000400fa008e80e8008048780029
:100d90009560a9000e80e80010407800e14f5000f7
:100da00016003a00414080004089200001004000c8
:100db000104f7800404080000000e800404088006c
:100dc000504080000000e900504088001e4078003c
:100dd000ea4f500003003a00604080000000e90044
:100de000604088004140800000202000808f50003b
:100df00018003a000828ef00160037006044800011
:100e0000e10f400002003a0040408000604488004a
:100e1000614480004089200001004000104f7800ac
:100e2000604480000000e800604488001e407800b4
:100e3000ea4f500002003a000080eb006044880056
:100e40006144800000202000808f500001003a00a3
:100e50008c28ef009560a8001e4078000080fa0002
:100e6000000006000200fa008140800040a9200036
:100e700001004000104f7800904080000000e0002a
:100e800006003200804080000000e80080408800ba
:100e9000904080000000e900904088008140800080
:100ea00000202000808f500001003a001028ef0041
:100eb0001e4078000080fa00000006000000fa00e2
:100ec000504080000080fa00000006000000fa0098
:100ed000113a8000f00b20000081600060042000c7
:100ee0007105200023742000804978008149780032
:100ef000824978007136800000fe2f00008060007b
:100f00003000b300703688002135800000fe2f00cd
:100f100000806000c000b30020358800103a8000d7
:100f2000000178000260a00060042000710520002c
:100f30002374200080497800814978008249780034
:100f40002062a9000060290001002000ee000700d7
:100f50002022ef0021e2a80023a2a90023e2a90099
:100f60002342a8009560a8009580a8002fff0700e5
:100f700035ff07001468ef000468ef000080fa00f6
:100f8000000006000400fa00008fbe00cfff07003b
:100f90001e00be000284230003002000820f5000c8
:100fa000838f580086003200028423000300200053
:100fb000820f5000838f580020003e0002962000d0
:100fc00003002000820f5000838f5800550032002c
:100fd0000296200003002000820f5000838f5800eb
:100fe0000b003e008225200003002000820f5000ed
:100ff000838f580031003200024b20000300200094
:10100000820f5000838f580039003200ba00370039
:10101000022c210003002000820f5000838f580013
:101020004d0032000258220003002000820f5000c1
:10103000838f580055003200af003700026029004e
:1010400003002000820f5000838f5800830032007d
:101050000260290003002000820f5000838f580097
:101060000b003e0002b0240003002000820f50005d
:10107000838f58005f003200020827000300200021
:10108000820f5000838f5800670032009a003700ab
:1010900002ac2d0003002000820f5000838f580007
:1010a0007b00320002102e0003002000820f50004f
:1010b000838f5800830032008f0037001e01be006e
:1010c0004418dd00cc10de00810070004410dd000b
:1010d0000001be0000402200410f20002e28070022
:1010e000000078000000e90040118800820037000d
:1010f0001e01be004418dd00cc10de00810070002f
:101100004410dd000001be0000402200410f20001d
:1011100021280700000078000000e9004011880045
:10112000750037001e01be004418dd00cc10de0043
:10113000810070004410dd000001be00004022006c
:10114000410f200014280700000078000000e9008b
:1011500040118800680037001e01be004418dd0001
:10116000cc10de00810070004410dd000001be00e4
:1011700000402200410f20000728070000007800ef
:101180000000e900401188005b0037001e01be002e
:101190004418dd00cc10de00810070004410dd003a
:1011a0000001be0000402200410f2000fa27070086
:1011b000000078000000e900401188004e00370070
:1011c0001e01be004418dd00cc10de00810070005e
:1011d0004410dd000001be0000402200410f20004d
:1011e000ed270700000078000000e90040118800aa
:1011f000410037001e01be004418dd00cc10de00a7
:10120000810070004410dd000001be00004022009b
:10121000410f2000e0270700000078000000e900ef
:1012200040118800340037001e01be004418dd0064
:10123000cc10de00810070004410dd000001be0013
:1012400000402200410f2000d32707000000780053
:101250000000e90040118800270037001e01be0091
:101260004418dd00cc10de00810070004410dd0069
:101270000001be0000402200410f2000c6270700e9
:10128000000078000000e900401188001a003700d3
:101290001e01be004418dd00cc10de00810070008d
:1012a0004410dd000001be0000402200410f20007c
:1012b000b9270700000078000000e900401188000d
:1012c0000d0037001e01be004418dd00cc10de000a
:1012d000810070004410dd000001be0000402200cb
:1012e000410f2000ac270700000078000000e90053
:1012f000401188000000000015c8bf003cfe070038
:101300000080fa00000006000400fa00008fbe0012
:101310001e00be000284230003002000820f500044
:10132000838f5800860032000284230003002000cf
:10133000820f5000838f580020003e00029620004c
:1013400003002000820f5000838f580055003200a8
:101350000296200003002000820f5000838f580067
:101360000b003e008225200003002000820f500069
:10137000838f580031003200024b20000300200010
:10138000820f5000838f580039003200ba003700b6
:10139000022c210003002000820f5000838f580090
:1013a0004d0032000258220003002000820f50003e
:1013b000838f580055003200af00370002602900cb
:1013c00003002000820f5000838f580083003200fa
:1013d0000260290003002000820f5000838f580014
:1013e0000b003e0002b0240003002000820f5000da
:1013f000838f58005f00320002082700030020009e
:10140000820f5000838f5800670032009a00370027
:1014100002ac2d0003002000820f5000838f580083
:101420007b00320002102e0003002000820f5000cb
:10143000838f5800830032008f0037001e01be00ea
:101440004418dd00cc10de00810070004410dd0087
:101450000001be0000402200410f20004e2707007f
:10146000000078000000e900401188008200370089
:101470001e01be004418dd00cc10de0081007000ab
:101480004410dd000001be0000402200410f20009a
:1014900041270700000078000000e90040118800a3
:1014a000750037001e01be004418dd00cc10de00c0
:1014b000810070004410dd000001be0000402200e9
:1014c000410f200034270700000078000000e900e9
:1014d00040118800680037001e01be004418dd007e
:1014e000cc10de00810070004410dd000001be0061
:1014f00000402200410f200027270700000078004d
:101500000000e900401188005b0037001e01be00aa
:101510004418dd00cc10de00810070004410dd00b6
:101520000001be0000402200410f20001a270700e2
:10153000000078000000e900401188004e003700ec
:101540001e01be004418dd00cc10de0081007000da
:101550004410dd000001be0000402200410f2000c9
:101560000d270700000078000000e9004011880006
:10157000410037001e01be004418dd00cc10de0023
:10158000810070004410dd000001be000040220018
:10159000410f200000270700000078000000e9004c
:1015a00040118800340037001e01be004418dd00e1
:1015b000cc10de00810070004410dd000001be0090
:1015c00000402200410f2000f326070000007800b1
:1015d0000000e90040118800270037001e01be000e
:1015e0004418dd00cc10de00810070004410dd00e6
:1015f0000001be0000402200410f2000e626070047
:10160000000078000000e900401188001a0037004f
:101610001e01be004418dd00cc10de008100700009
:101620004410dd000001be0000402200410f2000f8
:10163000d9260700000078000000e900401188006a
:101640000d0037001e01be004418dd00cc10de0086
:10165000810070004410dd000001be000040220047
:10166000410f2000cc260700000078000000e900b0
:1016700040118800000000000080fa000000060011
:101680000200fa00000f78009e0078002111880007
:101690000080fa00000006000000fa00101180002f
:1016a0004800de00614060000080fa000000060093
:1016b0000200fa00000f7800040037001e007800d6
:1016c0001040780089fd07001e0fe8001e0078001a
:1016d000104078000004e000f8ff3a000080fa00b3
:1016e000000006000000fa002d43a8002d23a800ea
:1016f0002d83a800c982a800c9c2a900c962a90097
:10170000cb62a800c9e2a900c962a900effd0700e9
:10171000cbe2a800cb62a800001027002100200027
:10172000564c0700cb62a90000502300c1002000e6
:10173000524c0700cb62a80060312a00dcff070092
:1017400000a02600810120004c4c070090312a00a7
:10175000d7ff070000202100a1072000474c070009
:10176000e0312a00d2ff070000202100a10720005d
:10177000424c070060332a00cdff07000020210003
:10178000a10720003d4c070070342a00c8ff070065
:1017900000202100a1072000384c0700b0352a00a6
:1017a000c3ff070000202100a1072000334c0700e1
:1017b000cbe2a90000102700210020002f4c0700d9
:1017c000cb62a90000502300c10020002b4c070071
:1017d000cb62a8000080fa00000006002c00fa008e
:1017e000e80057006c004700010878008000eb001b
:1017f0000e80e80001087800ef003700680057000d
:10180000100078009040780050c2b30080cf5000a4
:1018100092003a008000eb000e80e800010878009a
:101820000000eb00000f78007500370068005700db
:1018300010007800904078006e0047001e004000c5
:1018400001487800680057001000780010407800c8
:101850000000fb0061062000810f500007003200ed
:1018600051072000810f5000400032004106200047
:10187000810f50001e0032005b0037001e0fe80091
:101880006e0047001e0040008040eb0001487800d9
:101890006c004700100078008080e9006c00470071
:1018a000010878006c004700100078009000780074
:1018b00068004700010878006800470010007800c1
:1018c0001000be0078014700809fbe006e004700f8
:1018d000801f780002007800513d0700e68757001e
:1018e000110020000e80e800010878003e0037005b
:1018f0001e0fe8006e0047001e0040008040eb0015
:10190000014878006c004700100078008080e900f2
:101910006c004700010878006c0047001000780058
:1019200090007800680047000108780068004700d0
:10193000100078005001be004000be007802470051
:10194000809fbe00829fbe006e004700801f78000f
:1019500004007800323d0700ea875700110020009c
:101960000e80e800010878001f0037001e0fe80015
:101970006e0047001e0040008040eb0001487800e8
:101980006c004700100078008080e9006c00470080
:10199000010878006c004700100078009000780083
:1019a00068004700010878006800470010007800d0
:1019b0005001be004000be0078024700809fbe007c
:1019c000829fbe006e004700801f780004007800f0
:1019d000133d0700ea875700110020000e80e80041
:1019e000010878000000000068005700100078002f
:1019f0008000e80068005700010878001e0fe8002a
:101a00000e80e800100078000000e00087ff320040
:101a1000f80047006400470001087800090037001b
:101a2000640047001000780010407800e400470090
:101a3000910078000101e800e40047008208780086
:101a4000aafc0700640047001000780010407800ee
:101a50000004e000f2ff3a005c0037006800570025
:101a6000100078009040780040c2b30080cf500052
:101a700048003a0068005700100078008000e80035
:101a800068005700010878006800570010007800cf
:101a9000104078000000fb0021072000810f50005b
:101aa0001d00320031072000810f500034003a0041
:101ab0006c004700100078008080e9006c0047004f
:101ac000010878006c004700100078008000780062
:101ad00066004700110878000900370066004700db
:101ae0001000780010407800e60047009100780070
:101af0000101e800e6004700820878007bfc07004f
:101b00006600470010007800104078000004e000f4
:101b1000f2ff3a00230037006c0047001000780005
:101b20008080e9006c004700010878006c004700e5
:101b300010007800800078006a00470011087800e3
:101b4000070037006a004700100078000080e800b6
:101b50009000780010c0b3000100010063fc070092
:101b60006a00470010007800640040001000780010
:101b7000000001000000e000f2ff3a000900370019
:101b800068005700100078001040780057fc0700ec
:101b900004003700680057001000780010407800fb
:101ba00052fc070068005700100078008000e80031
:101bb000680057000108780068005700100078009e
:101bc000104078000004e0000cff3c000080fa00a8
:101bd000000006000000fa000080fa000000060085
:101be0000800fa00009fbe000297be001e40780069
:101bf000e14f500080003a00650047001040780037
:101c0000e14f50003c003a000e80e80010007800e0
:101c10008000eb00823e20000289b90002017800ba
:101c20006002b9008401780003014100833e200076
:101c30000300b8000101410082007800610040000b
:101c4000e080480017250700d2cc2c00c3fc2300fd
:101c50006a2507000001be000040220041b72400b1
:101c60004b260700b22407000000780020108800ef
:101c70000602a9000622a9000642a9000662a900e0
:101c80000682a90006a2a90006c2a90066004700b4
:101c900010407800e14f500002003a0006e2a80030
:101ca0000100370006e2a9000702a9000722a800e8
:101cb0000742a9000762a9000782a80007a2a8009e
:101cc00064004700104078000080fb00501088003e
:101cd0000022ef000222ef0007e2a80066004700a2
:101ce00010407800e14f500043003a009620a800d1
:101cf0009600a800400037006500470010407800bb
:101d0000e24f50003c003a000e80e80010007800de
:101d10008000eb00823e20000289b90002017800b9
:101d20006002b9008401780003014100833e200075
:101d30000300b8000101410082007800610040000a
:101d4000e0804800d7240700d2cc2c00c3fc23003d
:101d50002a2507000001be000040220041b72400f0
:101d60000b2607007224070000007800a0108800ee
:101d70001602a9001622a9001642a9001662a9009f
:101d80001682a90016a2a90016c2a9006600470083
:101d900010407800e14f500002003a0016e2a8001f
:101da0000100370016e2a9001702a9001722a800b7
:101db0001742a9001762a9001782a80017a2a8005d
:101dc00017e2a90064004700104078000080fb0083
:101dd000d01088001022ef001222ef0017e2a800b6
:101de0006600470010407800e14f500002003a00c2
:101df0009a40a8009a20a8000000000000000000ff
:101e000000000000000000000080fa000000060052
:101e10000800fa00009fbe000297be006500470060
:101e200010407800e14f500002003a000942a9003a
:101e3000010037001942a9000080fa0000000600e6
:101e40000800fa00009fbe000297be006500470030
:101e500010407800e14f500002003a0008c2a9008b
:101e60000100370018c2a9000080fa000000060037
:101e70000800fa00009fbe000297be006500470000
:101e800010407800e14f500004003a0040108000fc
:101e90004300de006140600003003700c010800096
:101ea0004300de00614060000080fa000000060090
:101eb0000800fa00009fbe000297be0065004700c0
:101ec00010407800e14f500004003a0040108000bc
:101ed0004a00de006140600003003700c01080004f
:101ee0004a00de00614060000080fa000000060049
:101ef0000800fa00009fbe000297be006500470080
:101f000010407800e14f500004003a00401080007b
:101f10004400de006140600003003700c010800014
:101f20004400de00614060000080fa00000006000e
:101f30000800fa00009fbe000297be00650047003f
:101f400010407800e14f500004003a00401080003b
:101f50000000d1006140600003003700c010800025
:101f60000000d100614060000080fa00000006001f
:101f70000800fa00009fbe000297be0065004700ff
:101f800010407800e14f500004003a0040108000fb
:101f90004500de006140600003003700c010800093
:101fa0004500de00614060000080fa00000006008d
:101fb0000800fa00009fbe000297be0065004700bf
:101fc00010407800e14f500004003a0040108000bb
:101fd0004600de006140600003003700c010800052
:101fe0004600de00614060000080fa00000006004c
:101ff0000800fa00009fbe000297be00650047007f
:1020000010407800e14f500002003a000602a8009c
:10201000010037001602a8000080fa000000060048
:102020000800fa00009fbe000297be00650047004e
:1020300010407800e14f500002003a000642a8002c
:10204000010037001642a8000080fa0000000600d8
:102050000a00fa00004f78000e80e8000498be00e5
:102060000690be006700470010407800e14f500026
:102070000c003a001e80fb0010108800680047002a
:10208000104078000004e00011003a000000000059
:1020900040108000610060000000e000fcff3a009a
:1020a0000b0037001e80fb0090108800680047007e
:1020b000104078000004e00005003a000000000035
:1020c000c0108000610060000000e000fcff3a00ea
:1020d0000080fa00000006000a00fa000e82e80004
:1020e000009abe000292be000040eb00004f780054
:1020f0006700470010407800e14f500013003a009d
:1021000068004700104078000004e0000a003a0030
:102110000662a800000000000000000040108000df
:10212000620060000000e000fcff32000010800050
:10213000004f78000300370000108000004f780047
:102140000782a8001e407800120037006800470090
:10215000104078000004e0000a003a001662a8006f
:102160000000000000000000c0108000620060005d
:102170000000e000fcff320080108000004f78007b
:102180000300370080108000004f78001782a800fd
:102190001e4078000080fa00000006000000fa00ef
:1021a0000080eb0060198800a0832000d1c4b30038
:1021b0006400400001487800a0832000011920003d
:1021c0000080e80001087800a083200021c0b3004f
:1021d0006500400001487800a083200011c0b300d2
:1021e00001487800a083200011c0b30066004000c1
:1021f00001487800a08320005001be004000be00ce
:1022000077fe070031000700370007003e00070097
:102210000080fa00000006000000fa00a083200001
:102220005001be004000be0011ff07000004e000a6
:102230000a003a00e0cfb30038e8b70010c0b3009e
:1022400036e8b7003968ef00a08320005001be00d7
:102250004000be0066ff07000300370010c0b30057
:1022600039e8b700000000000080fa000000060016
:102270000000fa00a04180000000e0000e003a00db
:10228000604180000000e0000e003200a0832000ca
:102290005001be004000be00f5fe07000004e00053
:1022a00008003a00a04180000000e00005003a006c
:1022b000d9ff070003003700a04180000000e900bb
:1022c000a04188000080fa00000006000000fa002b
:1022d0001c28ef001e28ef002028ef002228ef0026
:1022e0000080fa00000006000000fa002428ef0039
:1022f0002628ef002a28ef002828ef002e28ef00dc
:102300000080fa00000006000000fa002c28ef0010
:102310000080fa00000006000000fa005041800032
:10232000304188002e28ef000080fa0000000600ef
:102330000000fa0030418000504188002e28ef0054
:102340000080fa00000006000200fa00004f78004a
:10235000e140800040c92000010040001e48780094
:102360001e4078000004e00003003a0010418000a5
:102370000000e80010418800e04080000000e80014
:10238000e0408800004180000000e8000041880033
:10239000e140800060202000808f500001003a0062
:1023a0001c28ef000080fa00000006000200fa007e
:1023b000004f780021418000a0e92000010040008a
:1023c0001e4878001e4078000004e00003003a0038
:1023d000604180000000e8006041880020418000ea
:1023e0000000e80020418800404180000000e80033
:1023f000404188002141800060202000808f5000f3
:1024000001003a002428ef000080fa0000000600d6
:102410002e00fa00e80057006e004700010878001f
:1024200068005700100f78008000eb006400470040
:102430000108780010c0b300dcff0700f40037008b
:102440001e0078009040780050c2b30080cf50004a
:10245000a4003a008000eb00640047000108780007
:102460008000eb000e80e80001087800850037004e
:102470001e00780090407800700047000e81e80050
:102480001201780002004000014878001e00780028
:10249000104078000000fb0061062000810f500012
:1024a0000700320051072000810f50004a0032001f
:1024b00041062000810f5000240032006b003700dd
:1024c0000e80e800100078008000e8000e80e80030
:1024d00001087800700047008e80e80091007800c5
:1024e000010040008040eb00014878006e0047008a
:1024f000100078008080e9006e0047000108780035
:102500006e00470010007800900078006a004700d5
:10251000010878006a004700100078001000be0033
:102520007a014700809fbe0070004700801f78003e
:10253000020078003a3a0700e687570011002000b1
:102540006400470001087800480037000e80e8006a
:10255000100078008000e8000e80e8000108780094
:10256000700047008e80e800910078000100400074
:102570008040eb00014878006e00470010007800b2
:102580008080e9006e004700010878006e00470077
:1025900010007800900078006a0047000108780079
:1025a0006a004700100078001000be007a01470062
:1025b000809fbe0070004700801f780002007800f6
:1025c000173a0700e6875700110020006400470013
:1025d00001087800250037000e80e8001000780020
:1025e0008000e8000e80e8000108780070004700d5
:1025f0008e80e80091007800010040008040eb00f0
:10260000014878006e004700100078008080e900e3
:102610006e004700010878006e0047001000780047
:10262000900078006a004700010878006a004700bf
:10263000100078005001be004000be007a02470042
:10264000809fbe00829fbe0070004700801f780000
:1026500004007800f2390700ea87570011002000d3
:102660006400470001087800000000001e0fe80029
:102670000e80e800100078008000e8000e80e8007e
:102680000108780064004700100078000000e000b6
:1026900077ff3200fa004700660047000108780023
:1026a00009003700660047001000780010407800ed
:1026b000e6004700910078000101e800e6004700cd
:1026c0008208780039ff0700660047001000780094
:1026d000104078000004e000f2ff3a001e0fe9000d
:1026e0004a0037001e0078009040780040c2b300d6
:1026f00080cf500042003a001e0fe8001e00780014
:10270000104078000000fb0021072000810f5000de
:102710001d00320031072000810f500034003a00c4
:102720006e004700100078008080e9006e004700ce
:10273000010878006e0047001000780080007800e3
:10274000680047001108780009003700680047005a
:102750001000780010407800e800470091007800f1
:102760000101e800e8004700820878000fff070039
:102770006800470010007800104078000004e00076
:10278000f2ff3a00210037006e0047001000780089
:102790008080e9006e004700010878006e00470065
:1027a00010007800800078006c0047001108780065
:1027b000070037006c004700100078000080e80038
:1027c0009000780010c0b30001000100f7fe070080
:1027d0006c00470010007800640040001000780092
:1027e000000001000000e000f2ff3a00070037009f
:1027f0001e00780010407800ecfe07000300370050
:102800001e00780010407800e8fe07001e0fe80068
:102810001e007800104078000004e00008ff3c0033
:102820000040eb00e1fe07000080fa000000060017
:102830000400fa008e80e800804878000e80e800ee
:1028400010407800e14f50001d003a00f140800038
:1028500040c9200001004000104f7800f040800087
:102860000000e800f0408800004180000000e9001e
:1028700000418800f140800060202000808f5000df
:1028800001003a001e28ef001e4078000004e0001e
:1028900003003a00104180000000e9001041880068
:1028a000004180000000e0001b003a00e040800092
:1028b000f04088002028ef002228ef0016003700a3
:1028c00070448000e10f400002003a00f0408000b8
:1028d000704488007144800040c92000010040001d
:1028e000104f7800704480000000e80070448800b9
:1028f0007144800060202000808f500001003a0069
:102900008e28ef001e4078000004e00002003a002c
:102910000080eb00704488001e4078000080fa00c0
:10292000000006000200fa0031418000a0e920000a
:1029300001004000104f7800304180000000e800a6
:1029400030418800704180000000e800704188003c
:102950003141800060202000808f500001003a004b
:102960002628ef001e4078000080fa0000000600d4
:102970000000fa004141800070418000008050005a
:102980004041880030418000504188002e28ef00ef
:10299000604180000000e900604188004041800003
:1029a0000000e00006003a0020418000304188002d
:1029b00030418000504188002828ef002c28ef008b
:1029c0000080fa00000006000200fa00a083200048
:1029d0005001be004000be0025fd07000004e000dd
:1029e0002500320082418000934180000040800039
:1029f00011408000800f5100818f59000f00360078
:102a000000408000114080000001be00c212b000f2
:102a10000380b0008041800091418000800f510010
:102a2000818f590018003100004080001140800063
:102a30008041880091418800130037008041800068
:102a4000914180000001be00c212b0000380b000be
:102a50000040800011408000800f5100818f59009c
:102a60000900310000408000114080008041880052
:102a70009141880004003700004080001140800030
:102a80008041880091418800a08320005001be0051
:102a90004000be0046fd07000004e00004003200d4
:102aa000a08320005001be004000be00e4fc0700ef
:102ab000104180000000e0002700320010c0b30089
:102ac0005bff0700004f78001e00fb00e10f500085
:102ad00006003200e30f5000090032001a003700f0
:102ae00010c0b30052ff07000100370000000000d3
:102af000104180000000e000f9ff3a0016003700a6
:102b000010c0b3004aff07008000fb002005200032
:102b1000808f500004003a000800370010c0b30056
:102b200043ff070001003700000000001041800053
:102b30000000e000f9ff3a00000000000600370046
:102b400010c0b3003aff0700104180000000e00011
:102b5000fbff3a000000000082c8bf00e14f5000b8
:102b600008003a00a08320005001be004000be00d3
:102b7000dffc07000004e000020032008268ef0082
:102b80007bff0700604180000000e0000d00320084
:102b9000a08320005001be004000be00b4fc07002e
:102ba0000004e00007003a0082c8bf00e14f500077
:102bb00003003a008268ef006dff07000100370054
:102bc00095fd07000080fa00000006000000fa00f2
:102bd000204480000000e00007003200c012210005
:102be00080c0eb00014878003144800000002000e4
:102bf000a2122100410007000080fa000000060038
:102c00000200fa00004f780020448000a112210049
:102c1000808040009e4878000000e8002044880042
:102c200020448000e20f500009003600314480004b
:102c300000002000a2122100300007003044800074
:102c40000080e800304488008428ef000500370049
:102c500022448000a012210080c0eb00020040004e
:102c6000014878000080fa00000006000800fa0021
:102c70008e81e80080097800640047000108780030
:102c800066004700020878000e80e8001000780017
:102c90000040780032e0b70064004700100f780071
:102ca0001e0078001000ba0000407800e6004700df
:102cb0009100780080487800660047001000780096
:102cc0000000e8009e0078009100ba00c808de000d
:102cd00081407800014878006600470010007800c5
:102ce0000080e8009e0078009180ba008140780062
:102cf000014878000080fa00000006000c00fa008d
:102d0000e601470080097800680047000108780064
:102d10006a0047000208780030002400003b880069
:102d20006800470010007800800078000100a100d2
:102d3000010f78006600470010007800004078001e
:102d400032e0b7006a004700100078000000e80099
:102d5000104078008000fb000e80e8000108780039
:102d60000e80e80010007800c800dd000e80e8004a
:102d7000010878006a0047001000780010407800d1
:102d80008000fb00f00f2000008060008e80e800d3
:102d900091007800810070000e80e8000108780042
:102da0006a004700100078000080e800904078003a
:102db00064004700014878009e0078000e80e8001b
:102dc000100078008008bb006400470010407800c5
:102dd0000080fb009e0078008088bb000500fc009e
:102de00050052000303b8800a00a2000303b8800be
:102df00061e7a800000000000000000000000000e3
:102e0000013b800000002800008060000000e0001e
:102e1000fbff3a000080fa00000006000600fa00fe
:102e20000e81e8000009780064004700010878007e
:102e300020042400003b88006400470090007800d4
:102e400000f02f00008f60000e80e8001000780076
:102e50000040780032e0b7009e0078000000eb00f0
:102e60008008bb000500fc0050052000303b8800b6
:102e7000a00a2000303b880061e7a80000000000a5
:102e80000000000000000000013b8000000028005e
:102e9000008060000000e000fbff3a000080fa00c4
:102ea000000006000200fa00204480000000e0005c
:102eb00007003a003144800000002000a2122100e7
:102ec0006aff0700304480000080e800304488003a
:102ed00020448000a112210080804000114f780022
:102ee0000000e8002044880020448000e20f5000e9
:102ef000010036008428ef001e4078000080fa00b0
:102f0000000006000200fa00000f78001e007800a2
:102f10002d2d07000080fa00000006000200fa00d4
:102f2000000f78001e007800272d07000080fa00af
:102f3000000006000400fa00000f78000e80e80090
:102f4000014878000e80e800104078000080fb0007
:102f5000801f780060362a00801f78001e007800ed
:102f6000a3280700e48757000080fa00000006004d
:102f70000400fa00000f78000e80e80001087800d5
:102f80000e80e800901f7800a0362a00801f78008d
:102f90001e00780096280700e48757000080fa009a
:102fa000000006000600fa00000f78000e80e8001e
:102fb0000288be000e80e8001000be00809fbe00a8
:102fc000d0362a00801f78001e007800882807006d
:102fd000e68757000080fa00000006000a00fa00a9
:102fe000000f78000e80e8000498be000690be0036
:102ff0000e80e8005001be004000be00809fbe0071
:10300000829fbe0010372a00801f78001e007800c3
:10301000e22c0700ea8757000080fa000000060053
:103020000400fa00000f78000e80e80001487800e4
:103030000e80e800104078000000fb00801f780040
:1030400060372a00801f78001e007800d32c07000c
:10305000e48757000080fa00000006000400fa0030
:10306000000f78000e80e800010878000e80e8006c
:10307000901f7800a0372a00801f78001e0078007b
:10308000c62c0700e48757000080fa000000060005
:103090000600fa00000f78000e80e8000288be00eb
:1030a0000e80e8001000be00809fbe00d0372a00ce
:1030b000801f78001e007800b82c0700e6875700b4
:1030c0000080fa00000006000a00fa00000f7800f5
:1030d0000e80e8000498be000690be000e80e80056
:1030e0005001be004000be00809fbe00829fbe0017
:1030f00010382a00801f78001e007800a72c0700d7
:10310000ea8757000080fa00000006000200fa007b
:10311000000f78001e007800e836070000407800b5
:103120000080fa00000006000200fa00000f78009c
:103130001e007800e13607000080fa00000006005b
:103140000200fa00000f78001e0078000b3707001d
:103150000080fa00000006001000fa00889fbe0000
:103160008a9fbe00ee004700800878006000b8002b
:103170006011b800009fbe000297be008040eb00c7
:103180006a0047000148780068004700ee004700e9
:10319000110878002100370068004700100078000f
:1031a0009040780000c2b30080cf5000050032008c
:1031b000680047001000780010407800e94f500088
:1031c00006003a006a004700104078008040e8009e
:1031d0006a004700014878000b0037006a0047008a
:1031e000104078000080fb000000ea00e800470083
:1031f0009100780000804000e800470091007800ce
:10320000914078000148780068004700100078007d
:103210008000e80068004700010878006800470067
:1032200010007800104078000004e000daff3a0057
:103230006a004700104078000080fb000000ea00b0
:10324000e80047009100780000804000e800470057
:103250009100780091407800014878006e004700a6
:1032600010007800ca270700800078006c00470033
:10327000010878006c004700100078000000e000b2
:10328000540034008040eb006b0047000148780098
:10329000270037003e00be002e01be003f1f070082
:1032a0000004be006800470010007800104078005d
:1032b0000000fb00cf80de00481f07000005be00b5
:1032c0006b004700104078000080fb008000eb009e
:1032d000741f07000001be0000002000011224003e
:1032e000122307000001be000a00be00872107006c
:1032f0000001be000800be00c01f0700a11e07009d
:10330000009fbe000297be006b004700104078008f
:103310008040e8006b0047000148780068004700e3
:10332000100078008000e90068004700010878007c
:10333000680047001000780090407800f0c2b300a9
:1033400080cf50000c003400680047001000780067
:103350009040780090c3b30080cf500006003c003e
:1033600068004700900078006e0047001000780069
:10337000808f5000c7ff3100680047009000780040
:103380006e00470010007800808f500011003a0056
:10339000680047001000780090407800d0c2b30069
:1033a00080cf500008003a006022b8006033b800b7
:1033b0003e005200be805a003e015b009e815b00d1
:1033c0006e00b100050037003e00be002e01be00b9
:1033d000020037006000b8006011b8004f05be0061
:1033e0004f04be000080fa00000006000200fa0050
:1033f000000f78001e00780030360700004078008b
:103400000080fa00000006000200fa00000f7800b9
:103410001e007800293607000080fa000000060030
:103420000200fa00000f78001e00780053360700f3
:103430000080fa00000006001000fa00889fbe001d
:103440008a9fbe00ee004700800878006000b80048
:103450006011b800009fbe000297be008040eb00e4
:103460006a0047000148780068004700ee00470006
:10347000110878002100370068004700100078002c
:103480009040780000c2b30080cf500005003200a9
:10349000680047001000780010407800e94f5000a5
:1034a00006003a006a004700104078008040e800bb
:1034b0006a004700014878000b0037006a004700a7
:1034c000104078000080fb000000ea00e8004700a0
:1034d0009100780000804000e800470091007800eb
:1034e000914078000148780068004700100078009b
:1034f0008000e80068004700010878006800470085
:1035000010007800104078000004e000daff3a0074
:103510006a004700104078000080fb000000ea00cd
:10352000e80047009100780000804000e800470074
:103530009100780091407800014878006e004700c3
:103540001000780012270700800078006c00470008
:10355000010878006c004700100078000000e000cf
:10356000540034008040eb006b00470001487800b5
:10357000270037003e00be002e01be00871e070058
:103580000004be006800470010007800104078007a
:103590000000fb00cf80de00901e07000005be008b
:1035a0006b004700104078000080fb008000eb00bb
:1035b000bc1e07000001be00000020000112240014
:1035c0005a2207000001be000a00be00cf200700fb
:1035d0000001be000800be00081f0700e91d07002b
:1035e000009fbe000297be006b00470010407800ad
:1035f0008040e8006b004700014878006800470001
:10360000100078008000e900680047000108780099
:10361000680047001000780090407800f0c2b300c6
:1036200080cf50000c003400680047001000780084
:103630009040780090c3b30080cf500006003c005b
:1036400068004700900078006e0047001000780086
:10365000808f5000c7ff310068004700900078005d
:103660006e00470010007800808f500011003a0073
:10367000680047001000780090407800d0c2b30086
:1036800080cf500008003a006022b8006033b800d4
:103690003e005200be805a003e015b009e815b00ee
:1036a0006e00b100050037003e00be002e01be00d6
:1036b000020037006000b8006011b8004f05be007e
:1036c0004f04be000080fa00000006000000fa006f
:1036d00000042300203a88000080eb006019880075
:1036e0000080fa00000006000000fa0042002000fe
:1036f00031102000d007200059f307000080fa00a5
:10370000000006000000fa00f0ff070044f3070085
:103710004bf3070097f30700f2f707009ffa070043
:10372000f1ff070063f3070095f3070029f907008d
:08373000a5fc0700fbff3700b8
:020000040000fa
:10a000000000000000000000000000000000000050
:10a010000000000000000000000000000000000040
:10a020000000000000000000000000000000000030
:10a030000000000000000000000000000000000020
:020000040000fa
:10a800002f1321000e7f22000e018800000000009f
:10a81000000020000000e0000200320000012000e3
:10a820002002880014000700550107000000e00026
:10a8300003003a0060382a000100200002003700bf
:10a840000000200001002000810f70000100320094
:10a8500014000700000020000000e00002003200a9
:10a860000000020000000000821b02000000000047
:10a870000040da000000fe004440a900e00820008b
:10a880000000e0000300320010002000a00188005a
:10a890004440a800000006008a1f78008b1f780043
:10a8a0000000060091018800800478000000eb00a1
:10a8b0001a003700e284440032a0b4009905ba00bf
:10a8c000e284440032a0b4009906ba00e284440055
:10a8d00032a0b4000006eb00476fde00fd07b200b7
:10a8e000636ce10003003a00ebff07000000eb009f
:10a8f0000a003700606ce10004003a00005deb00e4
:10a900008b05e900fdff3e00040037006168e100af
:10a91000010032000086eb000b00070019c7ba00e7
:10a920001905ba000e04e00003003a000a00e00036
:10a93000e0ff3a0000000600fe07b2009e0188001a
:10a940008a047800f5ff3700395dba008b05e9000d
:10a950000c003200295dba008b05e90008003200c6
:10a960000c00e00003003a00e284440032a0b4008e
:10a97000f5ff370019ddba008b05e900faff3a0050
:10a980008904e800e184440032a0b400000006001d
:10a9900000000000000000000000000000000000b7
:10a9a00000000000000000000000000000000000a7
:10a9b0000000000000000000000000000000000097
:10a9c000809fbe003400f80010002000a001880025
:10a9d0000000fa008760a90000408000114080005c
:10a9e00061004000e080480000408800114088007d
:10a9f0000080fa003400f9004f00be00004006005d
:10aa00003600f800809fbe00829fbe00849fbe007b
:10aa1000869fbe003400f80010002000a0018800ce
:10aa20000000fa008580a90008003700111180009d
:10aa300000202000008060000000e00007003a00d5
:10aa400008d907000080fb0020118800904080009a
:10aa50000000e000f5ff3a000100370000000000b0
:10aa60000080fa003400f9004f03be004f02be0020
:10aa70004f01be004f00be003600f9000040060046
:10aa80003600f800809fbe00829fbe00849fbe00fb
:10aa9000869fbe003400f80010002000a00188004e
:10aaa0000200fa008560a900040037003011800020
:10aab000004f78001e40780069d807001011800010
:10aac000610060000000e000f8ff3a000080fa003a
:10aad0003400f9004f03be004f02be004f01be001c
:10aae0004f00be003600f900004006003600f800b6
:10aaf000809fbe00829fbe00849fbe00869fbe00d6
:10ab00003400f80010002000a00188000200fa00c4
:10ab10008a20a900a08320005001be004000be0092
:10ab200003dd07000004e00024003200a0832000c1
:10ab30005001be004000be0067dd0700004f7800f6
:10ab4000a08320005001be004000be0008dd0700c9
:10ab50000004e00003003a0020c0b30037e8b7006b
:10ab60001600370037c8bf00e24f50000a003a0015
:10ab70009e80fb008ac8bf000000fb00808f500051
:10ab80000300320030c0b30037e8b7000b003700d5
:10ab90003768ef000900370037c8bf00e34f5000a7
:10aba00006003a001e407800e7dd07000040800004
:10abb0001140800080418800914188000080fa00a7
:10abc0003400f9004f03be004f02be004f01be002b
:10abd0004f00be003600f900004006003600f800c5
:10abe000809fbe00829fbe00849fbe00869fbe00e5
:10abf0003400f80010002000a00188000200fa00d4
:10ac000040062000a04188008a40a900a0832000bf
:10ac10005001be004000be00a5dc07000004e000bb
:10ac200009003200a08320005001be004000be0099
:10ac300077dc07003668ef0010c0b30039e8b700d2
:10ac4000b5dd070044003700a08320005001be009e
:10ac50004000be00a6dc07000004e0000200320055
:10ac60003668ef003c003700a08320005001be0092
:10ac70004000be007edc07000004e0003600320029
:10ac800036c8bf00e14f500029003a0038c8bf0065
:10ac9000e24f400009003a00a08320003002be00cd
:10aca0002003be000040eb00e9dc070038c8bf000d
:10acb0000040e80038e8b7002700370038c8bf0078
:10acc000e14f400009003a008ac8bf00a18320007c
:10acd0003102be002103be00dddc070038c8bf0022
:10ace0000040e80038e8b7001b0037000ddf070020
:10acf000004f78001e4078000004e00002003a0097
:10ad000020c0b30036e8b7001e407800a1832000c1
:10ad10003102be002103be00cddc070000408000f0
:10ad20001140800080418800914188000a0037006e
:10ad300036c8bf00e24f500007003a003668ef0007
:10ad400010c0b30082e8b700a08320005001be000d
:10ad50004000be00b2dc07000080fa003400f900b9
:10ad60004f03be004f02be004f01be004f00be00a9
:10ad70003600f900004006000040da000000fe0046
:10ad8000000005000003be00ee0007006011b800df
:10ad90000470a70007f0a1006509b1001b00320094
:10ada00012003500860220000628e1000800350068
:10adb000f3ff2700f2ff2f006110b9000700e00049
:10adc00018003b00030028006000b80002000500e6
:10add0000000400081804800020149008381490051
:10ade0008502e900faff3a0008003700f88f4200b8
:10adf00002003c008000eb00000005008100d10053
:10ae00000080d3008502e800fcff3a000700e00064
:10ae100004003b0060001000e08018006001190091
:10ae2000e0811900000006000001be00c500070017
:10ae30000470a70003f0a1006509b10016003200fc
:10ae40000d0035006828e10006003500f0ff2f00f6
:10ae5000f1ff27000300e00013003b000100280081
:10ae60000000050000004000818048008502e900e4
:10ae7000fcff3a0008003700f88f420002003c0057
:10ae80008000eb00000005008100d1000080d300ad
:10ae90008502e800fcff3a000300e00002003b00ee
:10aea00060001000e0801800000006000003be00f3
:10aeb000a40007006011b8000470a70007f0a1000b
:10aec00007f8a30017003a006509b1000d00320031
:10aed0000d003500860220000628e1000300350041
:10aee000030028006000b8000200050000004000d8
:10aef0008180480002014900838149008502e90000
:10af0000faff3a0000000600f88f42000500340006
:10af10008100d1000080d3008502e800fcff3a00e8
:10af2000000006006011b8008000eb000000050082
:10af30000001be00830007000470a70003f0a10019
:10af400003f8a30013003a006509b10010003200b5
:10af5000090035006928e1000200350001002800e1
:10af60000000050000004000818048008502e900e3
:10af7000fcff3a0000000600f88f42000500350093
:10af80008100d1000080d3008502e800fcff3a0078
:10af9000000006008000eb0000000500881f78001c
:10afa000030478000300e00007003d00600010008b
:10afb000e080180060011900e081190002003b00e8
:10afc00001f02d00030037000700070008f0a7007c
:10afd00001f0a0004f047800000006004f89de0059
:10afe00082017800edff3700889fbe008a9fbe0077
:10aff0000082700004027100048271002600320099
:10b000000004be000200be006011b8006b09200001
:10b01000950220000182cf000a0039000541b100ed
:10b020000082cf00070039000541b1000982cf003e
:10b03000040039000541b1000882cf000100390049
:10b040000541b10005425200120032000a003b00e7
:10b0500082817100610164008100d1000080d30011
:10b060008984d3000884d3008b05e8000442e800fb
:10b07000f7ff3a00070037000804440089844c00b9
:10b0800000004800818048008b05e9000442e90087
:10b09000f9ff3a00050007004f05be004f04be004f
:10b0a000000006006011b800cfff370081002000cb
:10b0b000618055000b003d000b00200061fe2f0059
:10b0c0000100e1001d003400828171006101640013
:10b0d0008904d1000884d3000000e800faff3a0098
:10b0e0007100200061006400030070000200600035
:10b0f0000900320061044400e0844c000988a50086
:10b10000050032008b05e8006808e10002003a0003
:10b110008904d1000884d300f20f20000258e10016
:10b1200005003d00c75ddd00f907b20089807500ac
:10b1300008007800000006000bf827008b0078005c
:10b1400000000500c70ade00f107b200f50fb200eb
:10b1500008003200e1cf4200020032000170a0007e
:10b1600024000500810f7000010032000408050072
:10b1700044000500810f700002003a001400050031
:10b180008502e9000000400081c04800fcff3b0050
:10b190000170a000240005006022b8000602200013
:10b1a0000000d0008180d2000482d2008582d200cb
:10b1b0000000a0000202520083825a000300310006
:10b1c0000202420083824a000000a1000603e90057
:10b1d000f3ff3a000000060007f82700078361002c
:10b1e0000638e10004003a00f70720008783610079
:10b1f0008703710001003a0003f0a200889fbe009f
:10b200008a9fbe008c9fbe00470ade000480a1001a
:10b21000c71ade000580a10007002800078560002e
:10b2200087856100f70f20000720e1009e003200b3
:10b230000728e1009c003200010678000400e000cd
:10b24000b4003200f7072000878060000170a00082
:10b250000500e000c0003200f70720008781610090
:10b260000370a000050652000f003a000b50e100e9
:10b270000b0032000308e10002003a000200e10086
:10b280007e00320002045000838458000400310024
:10b290000001fd008101fd008402fd008a05fd0022
:10b2a0006044b800210037000520e10005003d00a2
:10b2b0000001fd008101fd008402fd008a05fd0002
:10b2c000050652007a60e100050035000170a1001a
:10b2d0004722dd00848070008a80700063003700a0
:10b2e0006044b800ef02660007ff2f000706660003
:10b2f0000500e00006003400f08312008714dd0032
:10b300000511de00071bdd00060171008519de0056
:10b310007060e100050035000904780082047800bf
:10b32000030178008001eb00700656000b50e1002d
:10b3300003003a0002004000838048000400370008
:10b3400060041400e0841c00020058008380580050
:10b350000188a300060032008100d1000080d300e4
:10b360008984d3000884d3000402e8002700370052
:10b370000178a30025003a000100e000030032003c
:10b380008186cf00698656000a0037008c002000b5
:10b390000000e00004003a0009007800880478000a
:10b3a0000004eb00700252008086cf000d064600bc
:10b3b0000c06e9007060e1000600350080007800ae
:10b3c00009007800880478000004eb00700656003d
:10b3d000700252000c00e0000c0034008c08dd000c
:10b3e000f00316000703de00868070000c00dd000d
:10b3f000074bde00060070008c4cdd000743de00ca
:10b40000868474000c44dd000c0252006120e100cf
:10b41000200035006101600007002800878164007a
:10b42000f7ff270087836400070374000300e00030
:10b430000600320082037300040032000000e800be
:10b44000e08048000188a3000e003a00f70f2000ba
:10b450000720e1004a003d000170a1004722dd0005
:10b46000810072008a8070000000be004f06be009e
:10b470004f05be004f04be00000006006000b8008b
:10b48000faff37008100d1000080d3000402e800f9
:10b49000eeff37000401780089017400a101070064
:10b4a0008a807000f1ff3700f7010700070278007b
:10b4b0000001fd008101fd00f30107008702780013
:10b4c000850372000778a300040032000001fd002c
:10b4d0008101fd0006020700e4ff370085036200da
:10b4e0000768a300080032000b50e100030032009f
:10b4f000f0ff2f00f1ff2700dcff37000001fd0007
:10b500008101fd00d9ff37000468a300d7ff320096
:10b51000faff3700f8ff2700888360000b003a002d
:10b520000000e00009003a00830364008283730096
:10b53000020032000200be00ccff37000b50e100d9
:10b54000ceff3a000200be00c8ff37001400200002
:10b55000810064003eff3700f8ff27008883610008
:10b5600004003a000200e00002003a008c0078007b
:10b57000beff3700150020008301640039ff37004b
:10b5800001f827000000200081007500b7ff370098
:10b59000889fbe008a9fbe008c9fbe001b002000bb
:10b5a0000202be0005866800060028000606660046
:10b5b0004709de00f20fb200820032000243e800c9
:10b5c00080003200c729de00f30fb2007d00320098
:10b5d0000343e8007b003200f107b2000170a000d5
:10b5e000f507b2000570a000c708dd004903de00c2
:10b5f000868070004700dd00c72add004923de0099
:10b60000868272004722dd000305510004035000ca
:10b61000858358000300310000004000818048000d
:10b620000a05e9008c1f78008a9fbe0004005000c4
:10b63000858058000402420085824a0000004000d4
:10b64000818048000005eb000004be006033b800b4
:10b650000406be000d48e10056003100110009004b
:10b660004dccd8000c01b8000d02b8008481410017
:10b6700060824a008283530003045c0084845c007f
:10b6800060055d000a00e00025003a0080057800b2
:10b690000d40e10049003100880078000700780083
:10b6a000110009004d88d8000c01b8000d02b80047
:10b6b0008481410060824a006003110083835b0043
:10b6c00004045c00e0845c000900e00021003a0012
:10b6d0004f01be000300e0002b003200e3016000d8
:10b6e000070673008c817100010032006400700055
:10b6f0004200de004e5edd000c007000c258de002d
:10b7000001e0a00083010700cf0178008180710073
:10b710004f06be004f05be004f04be0000000600ed
:10b720008c8343000d044c00e0844c0060054d0008
:10b730000000e9000a00e000d4ff32008c834300df
:10b740000d044c00e0844c0060054d000000e90051
:10b75000ceff37000c0343008d834b0060044c0088
:10b76000e0844c000000e9000900e000d8ff32004e
:10b770000c0343008d834b0060044c00e0844c00bc
:10b780000000e900d2ff37004200de004e5edd001f
:10b790000c007000c258de0001e0a000cf0178006c
:10b7a0000300e000daff320060001000e0801800c3
:10b7b000d7ff3700f0ff2f00aaff3700f0ff2f0060
:10b7c000b9ff37000404be002f0107008706780088
:10b7d0000004fd008104fd002b01070007836600c3
:10b7e0000678a300030032000960a7000800be002d
:10b7f0002c0037000d78a300020032000800be00c4
:10b80000280037000778a30026003a0001f0a100c5
:10b8100009f0a1000668a30003003200f1ff270031
:10b82000f0ff2f00baff37000d68a30003003200bd
:10b830000800be008c807000b5ff37000768a300c9
:10b8400007003a000648a30003003200f1ff27007a
:10b85000f0ff2f00aeff37000d48a30003003200b9
:10b860006000b8008c807000a9ff37000748a30073
:10b870000400320001f82700000020008c807000d6
:10b88000a3ff3700760107000004fd008104fd00de
:10b8900002057800720107000802be008a017800e4
:10b8a00059ff37000160a000120220009244880076
:10b8b00097ff37000100e000120032000500e000b1
:10b8c00010003200889fbe008a9fbe008c9fbe0081
:10b8d0000006eb0001f8a300030032006000100036
:10b8e000e08018000cf0a00005f8a300030032006f
:10b8f00060021200e0821a000cf0a2008005eb004a
:10b9000041ff37006000b8000200050003836800b3
:10b910000700280007036300470ade000480a10037
:10b92000c71ade000580a100f70f20000720e10004
:10b93000420032000728e10040003200889fbe002c
:10b940008a9fbe008c1f7800f107b200f307b20097
:10b950000400e000640032000170a0000500e00077
:10b96000680032000370a00085054200eb07b100bb
:10b970000204b8000302b8008484440060854a00d1
:10b98000020ab800848444000a854a00030ab80009
:10b9900004054500040033000804d0008984d20067
:10b9a0000a85d2008b05e9006158e1003d003500b1
:10b9b0000210200009016100030820008981610054
:10b9c000f70720008783640008867300c84cde00f8
:10b9d000c853dd00878474004855de000300e00092
:10b9e0000600320082037600040032008904e80079
:10b9f00060054d000a88a3000c003a00f70f2000f4
:10ba00000758e10044003d000a70a100c75ddd0059
:10ba10000a8575008a007300090078004f067800d7
:10ba20004f05be004f04be00000006000a05d1000d
:10ba30008984d3008b05e800f0ff3700881f780069
:10ba40000604780090000700070278000001fd005e
:10ba50008101fd008c0007008702780085037200d9
:10ba60000778a300050032000001fd008101fd0000
:10ba70009f0007004f047800000006008503720055
:10ba80000748a30003003200f0ff2f00f1ff27005a
:10ba9000f8ff37000000200001f8270088807000c0
:10baa000f4ff3700880178004848dd00808171008c
:10bab0004848de00c850dd0001007000c850de00bc
:10bac000060478000b0178001600070088807000db
:10bad000d2ff37000500e00005003200170020000b
:10bae0003a0007009dff370081037000f9ff3a001c
:10baf000860078004f0678004f05be004f04be0058
:10bb00000000050083037100f9ff320027002000c8
:10bb10002e00070094ff370001f827008680700090
:10bb2000f4ff37000100e00026003200610111003f
:10bb30007810e10023003c006022b8007010e100a2
:10bb40000400350080027800010078008000eb00de
:10bb5000700151000200e000090034007003110080
:10bb6000062add00822ade008603dd00878272005d
:10bb70000200de00860bdd00070070008208de0098
:10bb800084817100f4ff27000482620084817100c7
:10bb900004002800848262006102600005f0a600b3
:10bba0000000060004827100070032000000e80077
:10bbb000e0804800000006000002be006000b800ff
:10bbc000efff37006000b80000000600889fbe004d
:10bbd0000004eb006138e10016003a000100e000cb
:10bbe00008003a00c800de004800dd0088002000a0
:10bbf0000100e00003003a00c800de004800dd005c
:10bc0000680444008184cf00e984540006003400b5
:10bc10008908dd00f08314008703de008780700050
:10bc20000900dd0009044400610214004f04be0055
:10bc3000000006000300e00008003a00c811de0022
:10bc40004811dd00880020000300e00003003a00f6
:10bc5000c811de004811dd00680444008384cf0071
:10bc6000e9845400060034008919dd00f0831400d3
:10bc70008713de00878171000911dd00090444008b
:10bc8000e1021400e9ff37002700200001f0a700bf
:10bc900017002000470bde00f60fb2000400320050
:10bca0000643e8000a0032004702b3000000060025
:10bcb00001037800f607b2000603700002003a00a4
:10bcc0000703b300000006008702b300000006006f
:10bcd00001037800f607b20006037000020032008c
:10bce0000770a000000006000760a000000006002a
:10bcf0000478a300040032000578a300030032009a
:10bd00000168a30001003a000200be000160a0002b
:10bd10000000060081017000270032008002eb0065
:10bd200001f8a3000300320060001000e08018005a
:10bd300015002000f4072000020242002000340019
:10bd4000f70320008703600006042000000363005f
:10bd500002082000000161004700de00c909dd0083
:10bd600000807100c708de000600e0000800320015
:10bd700087037100060032001000b0000180b0009f
:10bd80000188a30002003200c108de000402e800be
:10bd9000f107b200f30f20000320e10003003d0093
:10bda0004722dd00810072002900370001f82700da
:10bdb0000000eb00260037006000b800000006001d
:10bdc000680212007f20e100020034006000b80029
:10bdd0001f0037006011b8007020e100040035003a
:10bde00080017800010078008000eb0070025200b2
:10bdf0000400e00009003400f00312000719dd0020
:10be00008419de000703dd00868171000400de0076
:10be1000070bdd00060070008408de00f7ff270036
:10be20008383630087037100060028000303630017
:10be3000070032000700e00003003a0061016000e3
:10be400002817300020032001000b0000180b000d7
:10be50000500a6000000060001f0a000000006009a
:10be60004f0ade004709de00f107b200f20fb20010
:10be70000b003200f207b1000170a000c708dd001e
:10be8000c901de00838070004700dd000400a600c9
:10be90000000060060001000e080180000000600ae
:10bea000810f700001003a00000006008182cf007f
:10beb0000500e00010003e008082cf00ee824200cc
:10bec0007028e1000400390007003e00800078007f
:10bed0000000eb000e003700708312008600de00c9
:10bee0000500dd000a003700708352008600dd0087
:10bef0000000eb0006003700e28252008508dd00fa
:10bf0000708312000603de00868070000500dd00ed
:10bf10007507b0000501ea000400a6000000060055
:10bf200060001000e0801800000006004f02b00022
:10bf3000889fbe008a9fbe008c9fbe008e1f780027
:10bf40000005be000204be00b2af9f00c3af9f0059
:10bf5000b2b79f00c3b79f00cfae97000df0a1000e
:10bf600002067800e00f5600e08f5e00c00332004a
:10bf7000faaf9f008bb79f000000200001f823005c
:10bf8000800f5500818f5d00b90332008fb297009a
:10bf900005f0a1007faa970094b79f00a5b79f0066
:10bfa0000000200001f82700800f5200818f5a0006
:10bfb00003003c00800f5600818f5e0004003400b7
:10bfc0000a01be000800be008cfc0700af0337006a
:10bfd0006033b8007fa997008fb19700e00f510040
:10bfe000e08f590029003d002600200007002000b6
:10bff000f0ff2f00f1b72400800f5600818f5e0004
:10c0000022003c006033b800f0ff2f00f1f723005e
:10c01000800f5600818f5e003300340047e8de0059
:10c02000cfe8de00f007b1000180b1007701100019
:10c030000c00be00820178008301e9000300330098
:10c040008180d1000080d300fbff37000003be00d9
:10c05000020778000e07e9000300330006034300df
:10c0600087834b00fbff37000601be006033b8003a
:10c070008c0f51008d8f59001b003a006103600046
:10c0800062031300e0831b0017003700000020004c
:10c0900001f82700800f5600818f5e0012003a00e1
:10c0a0000000200001f82300800f5200818f5a0009
:10c0b0006f033200060034003fb09700cfb0970006
:10c0c000e00f5000e08f580071033d006b03370014
:10c0d0003fb19700cfb19700e00f5100e08f5900ba
:10c0e00066033d00690037000000200001f82300ce
:10c0f000800f5600818f5e0009003a003fb2970022
:10c10000cfb29700e00f5200e08f5a005d033d0070
:10c110000a01be000000200001f82300550037008e
:10c1200000002000010024003fb19700cfb197002c
:10c13000800f5100818f590003003a000a01be00b0
:10c140000a00be00480337000000200001f0230071
:10c150003fb19700cfb19700800f5100818f5900f8
:10c1600008003a007fa897008fb09700e00f5000ba
:10c17000e08f5800030035000a00be007a03070074
:10c18000420337000a00be00f4b79f0085bf9f003e
:10c19000d6b79f00e7b79f004403070002002000c6
:10c1a00003f827007fb297008fba97005fb397001c
:10c1b000efb39700820f5200838f5a0008003200bd
:10c1c000e00f5200e08f5a0005003200020020000c
:10c1d00003f82300820f5200838f5a002d003a008b
:10c1e0003fb19700cfb19700e00f5100e08f5900a9
:10c1f0000c003d000001be000000200001f82300fb
:10c20000f4b79f0085bf9f00d6b79f00e7b79f0098
:10c21000dffc07007fb297008fba97005fb39700eb
:10c22000efb397007fa997008fb19700e00f5100ff
:10c23000e08f590015033d000200200003082c0088
:10c240000402410085824900040273008582730064
:10c25000e00f5200e08f5a0008003a00120220005e
:10c26000728988000001be000200be00dafb0700f0
:10c270000001be00c6fc070004033700e10f5300b5
:10c28000e08f5b0001033a000004be0009f0a20049
:10c29000ff0237007fa997008fb19700e00f510090
:10c2a000e08f59000d003d00e00f5300e08f5b0070
:10c2b00004003a0010022000708988000a01be00c4
:10c2c000e9ff3700e10f5300e08f5b000800320008
:10c2d0000600200007f823000700370002002000b6
:10c2e00003f82300f2af9f0083b79f0004003700dc
:10c2f0000600200007f82b00f6af9f0087b79f00cd
:10c300000200200003d02400820f5600838f5e00bd
:10c310005600340072ff2f00f3f72300820f520003
:10c32000838f5a0006003c003fb09700cfb09700c3
:10c33000e00f5000e08f580004023d00e20137009a
:10c340007200200003f82300820f5200838f5a00ee
:10c35000060034003fb19700cfb19700e00f5100c5
:10c36000e08f5900d8013c00f8013700020020009e
:10c3700003f8230098fb07000005be0002a02a0076
:10c3800083fb230061fd070090b79f00a1b79f00ca
:10c3900002572a00c36e23000a00be005bfd07009f
:10c3a0000002be000a01be000a00be00f4b79f00f2
:10c3b00085bf9f0055fd07000006be00020020005b
:10c3c00003e823000a00be0050fd07000001be0084
:10c3d000b0aa2a00a1ea23007ffb07000001be00eb
:10c3e0000a00be0049fd07000001be000000200059
:10c3f00001f0230078fb07000001be000c00be0026
:10c4000042fd0700b2a32a0083fb23003ffd070083
:10c410000001be007fb297008fba97000400be00f3
:10c420006dfb07000005be000001be001fb09700b5
:10c43000afb0970071fb07000001be0083007800d9
:10c4400004002f00020062000003be00b6b79f0088
:10c45000c7b79f001fb19700afb197005efb070001
:10c460000001be000a00be00560137006011b8008e
:10c47000f6ff2f00f7072000860f5200878f5a0023
:10c4800007003c000200200003b824001ffd070045
:10c4900090b79f00a1b79f0082fe2f00f3ff2f00ef
:10c4a000f207b1000380b1002fb2970047a0de0071
:10c4b00084027800cfa8de00020340008383480096
:10c4c00096af9f00a7af9f0085007800f107b200ec
:10c4d0001fb097000200200003f823000202700042
:10c4e0008382700094b79f00a5b79f006033b800a7
:10c4f000d6af9f00e7af9f0012472c00c30120007a
:10c50000820f5000838f58001a0034001200200060
:10c5100003002000d2af9f00e3af9f00623d2b00dd
:10c52000d3052000820f5000838f58001100340083
:10c530001faa9700afaa970061024200e0824a005a
:10c5400094af9f00a5af9f000000200001f82f00ce
:10c550001fb39700afb397000603400087834800de
:10c5600096b79f00a7b79f006000b800d0af9f00ac
:10c57000e1af9f00dfa89700c208dd0081af9f00f8
:10c58000200f2100010040001005be000a01be007e
:10c590001fb09700afb097000ffb07000006be006a
:10c5a0000a01be001fb09700afb0970013fb070051
:10c5b0000001be000000200001f82300f4fb07008a
:10c5c0000002be000001be000c00be00f4b79f00d8
:10c5d00085bf9f00cdfc07000003be000e002f00aa
:10c5e00081017800c3b79f0000016700b2b79f00c8
:10c5f0005fa89700efa89700c500dd0000002000ad
:10c60000d0af9f00e1af9f00000020000104200098
:10c610005fa99700efa997000201400083814800bd
:10c62000d2af9f00e3af9f001fb09700afb097005d
:10c630008181d1000081d3008300780001d0a10066
:10c640000200670001d0a0005fa99700efa9970042
:10c650000201400083814800d2af9f00e3af9f00fa
:10c660005fa99700efa997003fb09700cfb0970060
:10c67000d6b79f00e7b79f00a4fc07000001be00eb
:10c680000c00be00d4fa07000006be000a01be007e
:10c690005fa89700efa89700cffa07000001be003f
:10c6a0001fb09700afb09700cbfa07000001be00a3
:10c6b0003fb09700cfb0970094fc07000001be0088
:10c6c0000c00be00c4fa07000001be007fb2970054
:10c6d0008fba97000400be008cfc07000006be0065
:10c6e0005fb39700efb397000601be000600be00df
:10c6f00086fc07000005be000001be0083fc0700a9
