:020000040000FA
:080000000002040000000000F2
:020000040000FA
:04000800BC04000034
:020000040000FA
:04000C00BC04000030
:020000040000FA
:04001000BC0400002C
:020000040000FA
:04001400BC04000028
:020000040000FA
:04001800BC04000024
:020000040000FA
:04001C00BC04000020
:020000040000FA
:04002000BC0400001C
:020000040000FA
:04002400BC04000018
:020000040000FA
:04002800BC04000014
:020000040000FA
:04002C00BC04000010
:020000040000FA
:04003000BC0400000C
:020000040000FA
:04003400BC04000008
:020000040000FA
:04003800BC04000004
:020000040000FA
:04003C00BC04000000
:020000040000FA
:04004000BC040000FC
:020000040000FA
:04004400BC040000F8
:020000040000FA
:04004800BC040000F4
:020000040000FA
:04004C00BC040000F0
:020000040000FA
:04005000BC040000EC
:020000040000FA
:040054004003000065
:020000040000FA
:0400580000030000A1
:020000040000FA
:04005C00BC040000E0
:020000040000FA
:04006000BC040000DC
:020000040000FA
:04006400BC040000D8
:020000040000FA
:04006800BC040000D4
:020000040000FA
:04006C00BC040000D0
:020000040000FA
:04007000BC040000CC
:020000040000FA
:04007400BC040000C8
:020000040000FA
:04007800BC040000C4
:020000040000FA
:04007C00BC040000C0
:020000040000FA
:04008000BC040000BC
:020000040000FA
:04008400BC040000B8
:020000040000FA
:04008800BC040000B4
:020000040000FA
:04008C00BC040000B0
:020000040000FA
:04009000BC040000AC
:020000040000FA
:04009400E002000086
:020000040000FA
:04009800BC040000A4
:020000040000FA
:04009C00BC040000A0
:020000040000FA
:0400A000BC0400009C
:020000040000FA
:0400A400BC04000098
:020000040000FA
:0400A800BC04000094
:020000040000FA
:0400AC00BC04000090
:020000040000FA
:0400B000BC0400008C
:020000040000FA
:0400B400BC04000088
:020000040000FA
:0400B800BC04000084
:020000040000FA
:0400BC00BC04000080
:020000040000FA
:0400C000BC0400007C
:020000040000FA
:0400C400BC04000078
:020000040000FA
:0400C800BC04000074
:020000040000FA
:0400CC00BC04000070
:020000040000FA
:0400D000BC0400006C
:020000040000FA
:0400D400BC04000068
:020000040000FA
:0400D800BC04000064
:020000040000FA
:0400DC00BC04000060
:020000040000FA
:0400E000BC0400005C
:020000040000FA
:0400E400BC04000058
:020000040000FA
:0400E800BC04000054
:020000040000FA
:0400EC007603000097
:020000040000FA
:0400F000EE0300001B
:020000040000FA
:0400F400BC04000048
:020000040000FA
:0400F800BC04000044
:020000040000FA
:0400FC00BC04000040
:020000040000FA
:04010000BC0400003B
:020000040000FA
:04010400BC04000037
:020000040000FA
:04010800BC04000033
:020000040000FA
:04010C00BC0400002F
:020000040000FA
:04011000BC0400002B
:020000040000FA
:04011400BC04000027
:020000040000FA
:04011800BC04000023
:020000040000FA
:04011C00BC0400001F
:020000040000FA
:04012000BC0400001B
:020000040000FA
:04012400BC04000017
:020000040000FA
:04012800BC04000013
:020000040000FA
:04012C00BC0400000F
:020000040000FA
:04013000BC0400000B
:020000040000FA
:04013400BC04000007
:020000040000FA
:04013800BC04000003
:020000040000FA
:04013C00BC040000FF
:020000040000FA
:04014000BC040000FB
:020000040000FA
:04014400BC040000F7
:020000040000FA
:04014800BC040000F3
:020000040000FA
:04020800BC04000032
:020000040000FA
:04020C00BC0400002E
:020000040000FA
:04021000BC0400002A
:020000040000FA
:04021400BC04000026
:020000040000FA
:04021800BC04000022
:020000040000FA
:04021C00BC0400001E
:020000040000FA
:04022000BC0400001A
:020000040000FA
:04022400BC04000016
:020000040000FA
:04022800BC04000012
:020000040000FA
:04022C00BC0400000E
:020000040000FA
:04023000BC0400000A
:020000040000FA
:04023400BC04000006
:020000040000FA
:04023800BC04000002
:020000040000FA
:04023C00BC040000FE
:020000040000FA
:04024000BC040000FA
:020000040000FA
:04024400BC040000F6
:020000040000FA
:04024800BC040000F2
:020000040000FA
:04024C00BC040000EE
:020000040000FA
:04025000BC040000EA
:020000040000FA
:040254004003000063
:020000040000FA
:04025800000300009F
:020000040000FA
:04025C00BC040000DE
:020000040000FA
:04026000BC040000DA
:020000040000FA
:04026400BC040000D6
:020000040000FA
:04026800BC040000D2
:020000040000FA
:04026C00BC040000CE
:020000040000FA
:04027000BC040000CA
:020000040000FA
:04027400BC040000C6
:020000040000FA
:04027800BC040000C2
:020000040000FA
:04027C00BC040000BE
:020000040000FA
:04028000BC040000BA
:020000040000FA
:04028400BC040000B6
:020000040000FA
:04028800BC040000B2
:020000040000FA
:04028C00BC040000AE
:020000040000FA
:04029000BC040000AA
:020000040000FA
:04029400E002000084
:020000040000FA
:04029800BC040000A2
:020000040000FA
:04029C00BC0400009E
:020000040000FA
:0402A000BC0400009A
:020000040000FA
:0402A400BC04000096
:020000040000FA
:0402A800BC04000092
:020000040000FA
:0402AC00BC0400008E
:020000040000FA
:0402B000BC0400008A
:020000040000FA
:0402B400BC04000086
:020000040000FA
:0402B800BC04000082
:020000040000FA
:0402BC00BC0400007E
:020000040000FA
:0402C000BC0400007A
:020000040000FA
:0402C400BC04000076
:020000040000FA
:0402C800BC04000072
:020000040000FA
:0402CC00BC0400006E
:020000040000FA
:0402D000BC0400006A
:020000040000FA
:0402D400BC04000066
:020000040000FA
:0402D800BC04000062
:020000040000FA
:0402DC00BC0400005E
:020000040000FA
:0402E000BC0400005A
:020000040000FA
:0402E400BC04000056
:020000040000FA
:0402E800BC04000052
:020000040000FA
:0402EC007603000095
:020000040000FA
:0402F000EE03000019
:020000040000FA
:0402F400BC04000046
:020000040000FA
:0402F800BC04000042
:020000040000FA
:0402FC00BC0400003E
:020000040000FA
:04030000BC04000039
:020000040000FA
:04030400BC04000035
:020000040000FA
:04030800BC04000031
:020000040000FA
:04030C00BC0400002D
:020000040000FA
:04031000BC04000029
:020000040000FA
:04031400BC04000025
:020000040000FA
:04031800BC04000021
:020000040000FA
:04031C00BC0400001D
:020000040000FA
:04032000BC04000019
:020000040000FA
:04032400BC04000015
:020000040000FA
:04032800BC04000011
:020000040000FA
:04032C00BC0400000D
:020000040000FA
:04033000BC04000009
:020000040000FA
:04033400BC04000005
:020000040000FA
:04033800BC04000001
:020000040000FA
:04033C00BC040000FD
:020000040000FA
:04034000BC040000F9
:020000040000FA
:04034400BC040000F5
:020000040000FA
:04034800BC040000F1
:020000040000FA
:10040000EFFC20000E7F22000E018800000000009B
:10041000000020000000E000020032000001200087
:100420002002880014000700550107000000E000CA
:1004300003003A00C0B6210001002000020037008E
:100440000000200001002000810F70000100320038
:1004500014000700000020000000E000020032004D
:100460000000020000000000501B0200000000001D
:100470000040DA000000FE004440A900C002200055
:100480000000E0000300320000002000A00188000E
:100490004440A800000006008A1F78008B1F7800E7
:1004A0000000060091018800800478000000EB0045
:1004B0001A003700E284440032A0B4009905BA0063
:1004C000E284440032A0B4009906BA00E2844400F9
:1004D00032A0B4000006EB00476FDE00FD07B2005B
:1004E000636CE10003003A00EBFF07000000EB0043
:1004F0000A003700606CE10004003A00005DEB0088
:100500008B05E900FDFF3E00040037006168E10053
:10051000010032000086EB000B00070019C7BA008B
:100520001905BA000E04E00003003A000A00E000DA
:10053000E0FF3A0000000600FE07B2009E018800BE
:100540008A047800F5FF3700395DBA008B05E900B1
:100550000C003200295DBA008B05E900080032006A
:100560000C00E00003003A00E284440032A0B40032
:10057000F5FF370019DDBA008B05E900FAFF3A00F4
:100580008904E800E184440032A0B40000000600C1
:10059000000000000000000000000000000000005B
:1005A000000000000000000000000000000000004B
:1005B000000000000000000000000000000000003B
:1005C000809FBE003400F80000002000A0018800D9
:1005D0000000FA008760A900004080001140800000
:1005E00061004000E0804800004088001140880021
:1005F0000080FA003400F9004F00BE000040060001
:100600003600F800809FBE00829FBE00849FBE001F
:10061000869FBE003400F80000002000A001880082
:100620000000FA008580A900080037001111800041
:1006300000202000008060000000E00007003A0079
:100640006F0507000080FB002011880090408000AB
:100650000000E000F5FF3A00010037000000000054
:100660000080FA003400F9004F03BE004F02BE00C4
:100670004F01BE004F00BE003600F90000400600EA
:100680003600F800809FBE00829FBE00849FBE009F
:10069000869FBE003400F80000002000A001880002
:1006A0000200FA008560A9000400370030118000C4
:1006B000004F78001E407800D00407001011800021
:1006C000610060000000E000F8FF3A000080FA00DE
:1006D0003400F9004F03BE004F02BE004F01BE00C0
:1006E0004F00BE003600F900004006003600F8005A
:1006F000809FBE00829FBE00849FBE00869FBE007A
:100700003400F80000002000A00188000200FA0078
:100710008A20A900E08220005001BE004000BE00F7
:10072000060A07000004E00024003200E0822000F6
:100730005001BE004000BE006A0A0700004F78006A
:10074000E08220005001BE004000BE000B0A0700FE
:100750000004E00003003A0020C0B3002BE8B7001B
:10076000160037002BC8BF00E24F50000A003A00C5
:100770009E80FB0078C8BF000000FB00808F500007
:100780000300320030C0B3002BE8B7000B00370085
:100790002B68EF00090037002BC8BF00E34F500063
:1007A00006003A001E407800A607070000408000BF
:1007B0001140800020418800314188000080FA000B
:1007C0003400F9004F03BE004F02BE004F01BE00CF
:1007D0004F00BE003600F900004006003600F80069
:1007E000809FBE00829FBE00849FBE00869FBE0089
:1007F0003400F80000002000A00188000200FA0088
:1008000040062000404188008A40A900E082200084
:100810005001BE004000BE00A80907000004E0002F
:1008200009003200E08220005001BE004000BE00FE
:100830007A0907002A68EF0010C0B3002DE8B7005E
:10084000CD08070044003700E08220005001BE00C0
:100850004000BE00A90907000004E00002003200C9
:100860002A68EF003C003700E08220005001BE0003
:100870004000BE00810907000004E000360032009D
:100880002AC8BF00E14F500029003A002CC8BF0021
:10089000E24F400009003A00E08220003002BE0032
:1008A0002003BE000040EB00EC0907002CC8BF008D
:1008B0000040E8002CE8B700270037002CC8BF0034
:1008C000E14F400009003A0078C8BF00E1822000F3
:1008D0003102BE002103BE00E00907002CC8BF00A2
:1008E0000040E8002CE8B7001B003700260807008E
:1008F000004F78001E4078000004E00002003A003B
:1009000020C0B3002AE8B7001E407800E182200032
:100910003102BE002103BE00D00907000040800064
:100920001140800020418800314188000A003700D2
:100930002AC8BF00E24F500007003A002A68EF00C3
:1009400010C0B30076E8B700E08220005001BE007E
:100950004000BE00B50907000080FA003400F9002D
:100960004F03BE004F02BE004F01BE004F00BE004D
:100970003600F900004006000040DA000000FE00EA
:10098000000005000001BE001B0007000470A70066
:1009900003F0A10003F8A30013003A006509B100B9
:1009A00010003200090035006928E100020035001E
:1009B0000100280000000500000040008180480080
:1009C0008502E900FCFF3A0000000600F88F4200B3
:1009D000050035008100D1000080D3008502E800C9
:1009E000FCFF3A00000006008000EB00000005005C
:1009F0006011B800C5023700C70ADE00F107B20077
:100A0000F50FB20008003200E1CF420002003200D0
:100A10000170A00024000500810F70000100320069
:100A20000408050044000500810F700002003A0030
:100A3000140005008502E9000000400081C0480064
:100A4000FCFF3B000170A000240005006022B800FC
:100A5000060220000000D0008180D2000482D20073
:100A60008582D2000000A0000202520083825A0058
:100A7000030031000202420083824A000000A1000C
:100A80000603E900F3FF3A000000060007F827001C
:100A9000078361000638E10004003A00F7072000F0
:100AA000878361008703710001003A0003F0A20010
:100AB000889FBE008A9FBE008C9FBE00470ADE0052
:100AC0000480A100C71ADE000580A10007002800ED
:100AD0000785600087856100F70F20000720E1008F
:100AE0009E0032000728E1009C00320001067800D9
:100AF0000400E000B4003200F707200087806000A7
:100B00000170A0000500E000C0003200F7072000DF
:100B1000878161000370A000050652000F003A00B3
:100B20000B50E1000B0032000308E10002003A0024
:100B30000200E1007E00320002045000838458006D
:100B4000040031000001FD008101FD008402FD0070
:100B50008A05FD006044B800210037000520E1004F
:100B600005003D000001FD008101FD008402FD0043
:100B70008A05FD00050652007A60E1000500350097
:100B80000170A1004722DD00848070008A8070001F
:100B9000630037006044B800EF02660007FF2F00D3
:100BA000070666000500E00006003400F08312002E
:100BB0008714DD000511DE00071BDD000601710052
:100BC0008519DE007060E100050035000904780039
:100BD00082047800030178008001EB007006560063
:100BE0000B50E10003003A000200400083804800FF
:100BF0000400370060041400E0841C000200580068
:100C0000838058000188A300060032008100D100D3
:100C10000080D3008984D3000884D3000402E80054
:100C2000270037000178A30025003A000100E0000A
:100C3000030032008186CF00698656000A00370023
:100C40008C0020000000E00004003A000900780059
:100C5000880478000004EB00700252008086CF0008
:100C60000D0646000C06E9007060E1000600350044
:100C70008000780009007800880478000004EB0008
:100C800070065600700252000C00E0000C003400A8
:100C90008C08DD00F00316000703DE00868070007C
:100CA0000C00DD00074BDE00060070008C4CDD0000
:100CB0000743DE00868474000C44DD000C02520001
:100CC0006120E1002000350061016000070028007C
:100CD00087816400F7FF270087836400070374009F
:100CE0000300E000060032008203730004003200BB
:100CF0000000E800E08048000188A3000E003A00F0
:100D0000F70F20000720E1004A003D000170A1001C
:100D10004722DD00810072008A8070000000BE0062
:100D20004F06BE004F05BE004F04BE000000060087
:100D30006000B800FAFF37008100D1000080D300C6
:100D40000402E800EEFF3700040178008901740016
:100D50001B0107008A807000F1FF37004201070085
:100D6000070278000001FD008101FD003E0107003F
:100D700087027800850372000778A3000400320020
:100D80000001FD008101FD0051010700E4FF370073
:100D9000850362000768A300080032000B50E100E1
:100DA00003003200F0FF2F00F1FF2700DCFF3700C7
:100DB0000001FD008101FD00D9FF37000468A30098
:100DC000D7FF3200FAFF3700F8FF27008883600062
:100DD0000B003A000000E00009003A0083036400C1
:100DE00082837300020032000200BE00CCFF370095
:100DF0000B50E100CEFF3A000200BE00C8FF3700F2
:100E000014002000810064003EFF3700F8FF270037
:100E10008883610004003A000200E00002003A000A
:100E20008C007800BEFF37001500200083016400AD
:100E300039FF370001F8270000002000810075000D
:100E4000B7FF3700889FBE008A9FBE008C9FBE0000
:100E50001B0020000202BE00058668000600280074
:100E6000060666004709DE00F20FB200820032007B
:100E70000243E80080003200C729DE00F30FB20011
:100E80007D0032000343E8007B003200F107B2002E
:100E90000170A000F507B2000570A000C708DD00D2
:100EA0004903DE00868070004700DD00C72ADD00B0
:100EB0004923DE00868272004722DD0003055100CF
:100EC00004035000858358000300310000004000F7
:100ED000818048000A05E9008C1F78008A9FBE00C7
:100EE00004005000858058000402420085824A00B8
:100EF00000004000818048000005EB000004BE00B7
:100F00006033B8000406BE000D48E1005600310011
:100F1000110009004DCCD8000C01B8000D02B8003A
:100F20008481410060824A008283530003045C0094
:100F300084845C0060055D000A00E00025003A0042
:100F4000800578000D40E1004900310088007800FC
:100F500007007800110009004D88D8000C01B80086
:100F60000D02B8008481410060824A0060031100D4
:100F700083835B0004045C00E0845C000900E00003
:100F800021003A004F01BE000300E0002B003200B8
:100F9000E3016000070673008C81710001003200DC
:100FA000640070004200DE004E5EDD000C00700048
:100FB000C258DE0001E0A000CE000700CF0178009B
:100FC000818071004F06BE004F05BE004F04BE0079
:100FD000000006008C8343000D044C00E0844C00AC
:100FE00060054D000000E9000A00E000D4FF320077
:100FF0008C8343000D044C00E0844C0060054D00E0
:101000000000E900CEFF37000C0343008D834B0046
:1010100060044C00E0844C000000E9000900E0009E
:10102000D8FF32000C0343008D834B0060044C005A
:10103000E0844C000000E900D2FF37004200DE00EF
:101040004E5EDD000C007000C258DE0001E0A00022
:10105000CF0178000300E000DAFF320060001000EA
:10106000E0801800D7FF3700F0FF2F00AAFF3700FD
:10107000F0FF2F00B9FF37000404BE007A0007001C
:10108000870678000004FD008104FD00760007005B
:10109000078366000678A300030032000960A700FA
:1010A0000800BE002C0037000D78A30002003200BB
:1010B0000800BE00280037000778A30026003A0089
:1010C00001F0A10009F0A1000668A30003003200AE
:1010D000F1FF2700F0FF2F00BAFF37000D68A300D3
:1010E000030032000800BE008C807000B5FF37009E
:1010F0000768A30007003A000648A3000300320077
:10110000F1FF2700F0FF2F00AEFF37000D48A300CE
:10111000030032006000B8008C807000A9FF370027
:101120000748A3000400320001F827000000200057
:101130008C807000A3FF3700C10007000004FD0091
:101140008104FD0002057800BD0007000802BE0012
:101150008A01780059FF37000160A00012022000C8
:10116000E243880097FF37000100E00012003200E0
:101170000500E00010003200889FBE008A9FBE007C
:101180008C9FBE000006EB0001F8A30003003200B4
:1011900060001000E08018000CF0A00005F8A3002B
:1011A0000300320060021200E0821A000CF0A2007C
:1011B0008005EB0041FF37006000B8000200050029
:1011C0000100E00026003200610111007810E1000A
:1011D00023003C006022B8007010E10004003500DC
:1011E00080027800010078008000EB00700151005F
:1011F0000200E0000900340070031100062ADD003F
:10120000822ADE008603DD00878272000200DE0093
:10121000860BDD00070070008208DE00848171000B
:10122000F4FF27000482620084817100040028001A
:10123000848262006102600005F0A60000000600E2
:1012400004827100070032000000E800E0804800DE
:10125000000006000002BE006000B800EFFF37008B
:101260006000B800000006002700200001F0A70081
:1012700017002000470BDE00F60FB200040032001A
:101280000643E8000A0032004702B30000000600EF
:1012900001037800F607B2000603700002003A006E
:1012A0000703B300000006008702B3000000060039
:1012B00001037800F607B200060370000200320056
:1012C0000770A000000006000760A00000000600F4
:1012D0000478A300040032000578A3000300320064
:1012E0000168A30001003A000200BE000160A000F6
:1012F0000000060081017000270032008002EB0030
:1013000001F8A3000300320060001000E080180024
:1013100015002000F40720000202420020003400E3
:10132000F703200087036000060420000003630029
:1013300002082000000161004700DE00C909DD004D
:1013400000807100C708DE000600E00008003200DF
:1013500087037100060032001000B0000180B00069
:101360000188A30002003200C108DE000402E80088
:10137000F107B200F30F20000320E10003003D005D
:101380004722DD00810072002900370001F82700A4
:101390000000EB00260037006000B80000000600E7
:1013A000680212007F20E100020034006000B800F3
:1013B0001F0037006011B8007020E1000400350004
:1013C00080017800010078008000EB00700252007C
:1013D0000400E00009003400F00312000719DD00EA
:1013E0008419DE000703DD00868171000400DE0041
:1013F000070BDD00060070008408DE00F7FF270001
:1014000083836300870371000600280003036300E1
:10141000070032000700E00003003A0061016000AD
:1014200002817300020032001000B0000180B000A1
:101430000500A6000000060001F0A0000000060064
:101440004F0ADE004709DE00F107B200F20FB200DA
:101450000B003200F207B1000170A000C708DD00E8
:10146000C901DE00838070004700DD000400A60093
:101470000000060060001000E08018000000060078
:10148000810F700001003A00000006008182CF0049
:101490000500E00010003E008082CF00EE82420096
:1014A0007028E1000400390007003E008000780049
:1014B0000000EB000E003700708312008600DE0093
:1014C0000500DD000A003700708352008600DD0051
:1014D0000000EB0006003700E28252008508DD00C4
:1014E000708312000603DE00868070000500DD00B8
:1014F0007507B0000501EA000400A6000000060020
:1015000060001000E080180000000600889FBE0008
:101510008A9FBE0000827000040271000482710084
:10152000260032000004BE000200BE006011B800B8
:101530006B092000950220000182CF000A003900CB
:101540000541B1000082CF00070039000541B1001C
:101550000982CF00040039000541B1000882CF00A4
:10156000010039000541B10005425200120032006D
:101570000A003B0082817100610164008100D1009A
:101580000080D3008984D3000884D3008B05E80051
:101590000442E800F7FF3A0007003700080444005F
:1015A00089844C0000004800818048008B05E900D8
:1015B0000442E900F9FF3A00030007004F05BE00AE
:1015C0004F04BE000000060081002000618055002D
:1015D0000B003D000B00200061FE2F000100E10028
:1015E0001D00340082817100610164008904D10012
:1015F0000884D3000000E800FAFF3A0071002000E0
:101600006100640003007000020060000900320005
:1016100061044400E0844C000988A5000500320004
:101620008B05E8006808E10002003A008904D10057
:101630000884D300F20F20000258E10005003D00AD
:10164000C75DDD00F907B2008980750008007800E9
:10165000000006000BF827008B0078000000050052
:020000040000FA
:101660007E080000900D00002C0E00007E0A000095
:10167000440D00007E0C000076130000E013000013
:10168000BE0E000078140000486F00006C6100007E
:10169000204D0000756E0000646F0000210A0000FC
:1016A00000520000464900000025000073090000B8
:0816B00025730000000000009A
:020000040000FA
:1016B8000000FA0000022800F0088800A00F2000AF
:1016C800D00888009760A8000080FA000000060093
:1016D8000000FA00C8C2A9000080FA000000060055
:1016E8000200FA00000F78001E007800E10F500099
:1016F80007003200E10F500003003900E20F5000EC
:10170800050032000D003700CAC2A8000B003700E0
:10171800CAC2A90009003700511680000004200041
:10172800008060000000E00002003200CAC2A90088
:1017380002003700CAC2A800000000000080FA00BA
:10174800000006000600FA00000F78000E80E8008E
:10175800010878006400470002087800CAC2A8009F
:101768009E007800B14188000E80E8009000780063
:10177800C14188006400470090007800D14188008A
:101788000040800011408000E0418800F14188005D
:101798000080FA00000006000000FA00C041800046
:1017A8000000E0002A003200C04180006101B8005A
:1017B800E0418000F141800002014000838148003F
:1017C8000040800011408000800F5100818F590037
:1017D80013003100D04180000000E0000700320013
:1017E800D04180000000E900D0418800D04180004D
:1017F8000000E00001003A003828EF00C0418000F6
:101808000000E00012003200CAC2A80000408000B8
:1018180011408000E0418800F14188000C00370049
:10182800B04180006101B800E0418000F1418000D2
:101838000201400083814800004080001140800080
:10184800800F5100818F590001003100CAC2A900E0
:101858000080FA00000006000000FA000080FA008C
:10186800000006000600FA00008FBE006400470072
:10187800024878001E01BE00C2428800D342880098
:101888006400470090407800038720008149780071
:10189800004080001140800000428800114288000A
:1018A8000080FA00000006000000FA00C042800034
:1018B800D1428000E00F5000E08F5800180032003D
:1018C8000242800013428000C0428000D142800062
:1018D80002014000838148000040800011408000E0
:1018E800800F5100818F59000D00310001872000C1
:1018F8009140780040C5B30080CF500003003A0003
:101908005828EF005A28EF000400370000408000F4
:1019180011408000004288001142880051070700EA
:101928000080FA00000006000000FA002162A8000A
:101938002122A8002102A9000080FA000000060068
:101948000200FA00004F78001E407800E14F500076
:1019580006003A0010C0B30016E8B7002162A900DB
:101968002122A8002102A900040037001668EF0010
:101978002162A9002122A9002102A9000080FA0001
:10198800000006000200FA00004F78001E407800B0
:101998000004E0000500320023C2A8002082A8004D
:1019A80010C0B30015E8B7000300370023C2A90030
:1019B8002082A9001568EF000080FA0000000600E8
:1019C8000000FA000628EF000828EF000A28EF00B8
:1019D8000C28EF000080FA00000006000000FA0062
:1019E8000E28EF001028EF001228EF000080FA0000
:1019F800000006000200FA00004F78005140800005
:101A0800F01F2000808F500017003E0031408000FA
:101A1800E0872000010040001E4878003040800028
:101A28000000E80030408800504080000000E800D6
:101A3800504088001E407800EA4F500003003A00EA
:101A4800604080000000E80060408800314080006D
:101A580000202000808F500001003A000628EF0087
:101A680010C0B30004003700604080000000E800A8
:101A7800604088000040EB000080FA00000006008B
:101A88000200FA00004F780091408000F01F20000B
:101A9800808F50001E003E009580A9007140800094
:101AA800E0A72000010040001E4878007040800038
:101AB8000000E80070408800904080000000E800C6
:101AC800904088007140800000202000808F5000E6
:101AD80001003A000E28EF001111800000202000BC
:101AE800008060000000E00003003A0042000700A8
:101AF8000080FB0020118800904080000000E0007A
:101B080002003A0010C0B30004E8B7009580A800AE
:101B18000080FA00000006000400FA008E80E80049
:101B2800804878009560A9000E80E8001040780091
:101B3800E14F500016003A0041408000E087200045
:101B480001004000104F7800404080000000E8008D
:101B580040408800504080000000E9005040880064
:101B68001E407800EA4F500003003A0060408000B1
:101B78000000E9006040880041408000002020000B
:101B8800808F500018003A000828EF001600370030
:101B9800D0438000E10F400002003A00404080003E
:101BA800D0438800D1438000E08720000100400036
:101BB800104F7800D04380000000E800D043880030
:101BC8001E407800EA4F500002003A000080EB0007
:101BD800D0438800D143800000202000808F50002F
:101BE80001003A007A28EF009560A8001E407800AE
:101BF8000080FA00000006000200FA008140800020
:101C0800E0A7200001004000104F780090408000BD
:101C18000000E00006003200804080000000E8007C
:101C280080408800904080000000E90090408800D3
:101C38008140800000202000808F500001003A0081
:101C48001028EF001E4078000080FA00000006000F
:101C58000000FA00504080000080FA0000000600F2
:101C68000000FA00113A8000F00B200000816000AB
:101C7800600420007105200023742000804978004A
:101C880081497800824978005136800000FE2F0093
:101C9800008060003000B300503688002135800095
:101CA80000FE2F0000806000F000B300203588009F
:101CB800103A8000000178000260A0006004200053
:101CC800710520002374200080497800814978003C
:101CD800824978002062A9000058220001002000F3
:101CE800EE0007002022EF0021E2A80023A2A900AD
:101CF80023E2A9002342A8009560A8009580A800C7
:101D08002FFF070035FF07001468EF000468EF0095
:101D18000080FA00000006000400FA00008FBE00F0
:101D2800CFFF07001E00BE0002842300030020002E
:101D3800820F5000838F58008600320002842300EF
:101D480003002000820F5000838F580020003E00BF
:101D58000296200003002000820F5000838F580055
:101D6800550032000296200003002000820F500028
:101D7800838F58000B003E008225200003002000BE
:101D8800820F5000838F580031003200024B200030
:101D980003002000820F5000838F58003900320062
:101DA800BA003700022C210003002000820F5000E7
:101DB800838F58004D003200025822000300200093
:101DC800820F5000838F580055003200AF00370053
:101DD8000260290003002000820F5000838F580002
:101DE800830032000260290003002000820F5000A7
:101DF800838F58000B003E0002B02400030020002F
:101E0800820F5000838F58005F00320002082700BD
:101E180003002000820F5000838F580067003200B3
:101E28009A00370002AC2D0003002000820F5000FA
:101E3800838F58007B00320002102E000300200020
:101E4800820F5000838F5800830032008F003700C4
:101E58001E01BE004418DD00CC10DE0081007000B9
:101E68004410DD000001BE0000402200410F2000A8
:101E7800F4FA0700000078000000E900401188002B
:101E8800820037001E01BE004418DD00CC10DE00C1
:101E9800810070004410DD000001BE0000402200F7
:101EA800410F2000E7FA0700000078000000E90071
:101EB80040118800750037001E01BE004418DD007F
:101EC800CC10DE00810070004410DD000001BE006F
:101ED80000402200410F2000DAFA070000007800D5
:101EE8000000E90040118800680037001E01BE00AC
:101EF8004418DD00CC10DE00810070004410DD00C5
:101F08000001BE0000402200410F2000CDFA07006A
:101F1800000078000000E900401188005B003700ED
:101F28001E01BE004418DD00CC10DE0081007000E8
:101F38004410DD000001BE0000402200410F2000D7
:101F4800C0FA0700000078000000E900401188008E
:101F58004E0037001E01BE004418DD00CC10DE0024
:101F6800810070004410DD000001BE000040220026
:101F7800410F2000B3FA0700000078000000E900D4
:101F880040118800410037001E01BE004418DD00E2
:101F9800CC10DE00810070004410DD000001BE009E
:101FA80000402200410F2000A6FA07000000780038
:101FB8000000E90040118800340037001E01BE000F
:101FC8004418DD00CC10DE00810070004410DD00F4
:101FD8000001BE0000402200410F200099FA0700CE
:101FE800000078000000E900401188002700370051
:101FF8001E01BE004418DD00CC10DE008100700018
:102008004410DD000001BE0000402200410F200006
:102018008CFA0700000078000000E90040118800F1
:102028001A0037001E01BE004418DD00CC10DE0087
:10203800810070004410DD000001BE000040220055
:10204800410F20007FFA0700000078000000E90037
:10205800401188000D0037001E01BE004418DD0045
:10206800CC10DE00810070004410DD000001BE00CD
:1020780000402200410F200072FA0700000078009B
:102088000000E900401188000000000015C8BF00EA
:102098003CFE07000080FA00000006000400FA0079
:1020A800008FBE001E00BE00028423000300200033
:1020B800820F5000838F580086003200028423006C
:1020C80003002000820F5000838F580020003E003C
:1020D8000296200003002000820F5000838F5800D2
:1020E800550032000296200003002000820F5000A5
:1020F800838F58000B003E0082252000030020003B
:10210800820F5000838F580031003200024B2000AC
:1021180003002000820F5000838F580039003200DE
:10212800BA003700022C210003002000820F500063
:10213800838F58004D00320002582200030020000F
:10214800820F5000838F580055003200AF003700CF
:102158000260290003002000820F5000838F58007E
:10216800830032000260290003002000820F500023
:10217800838F58000B003E0002B0240003002000AB
:10218800820F5000838F58005F003200020827003A
:1021980003002000820F5000838F58006700320030
:1021A8009A00370002AC2D0003002000820F500077
:1021B800838F58007B00320002102E00030020009D
:1021C800820F5000838F5800830032008F00370041
:1021D8001E01BE004418DD00CC10DE008100700036
:1021E8004410DD000001BE0000402200410F200025
:1021F80014FA0700000078000000E9004011880088
:10220800820037001E01BE004418DD00CC10DE003D
:10221800810070004410DD000001BE000040220073
:10222800410F200007FA0700000078000000E900CD
:1022380040118800750037001E01BE004418DD00FB
:10224800CC10DE00810070004410DD000001BE00EB
:1022580000402200410F2000FAF907000000780032
:102268000000E90040118800680037001E01BE0028
:102278004418DD00CC10DE00810070004410DD0041
:102288000001BE0000402200410F2000EDF90700C8
:10229800000078000000E900401188005B0037006A
:1022A8001E01BE004418DD00CC10DE008100700065
:1022B8004410DD000001BE0000402200410F200054
:1022C800E0F90700000078000000E90040118800EC
:1022D8004E0037001E01BE004418DD00CC10DE00A1
:1022E800810070004410DD000001BE0000402200A3
:1022F800410F2000D3F90700000078000000E90032
:1023080040118800410037001E01BE004418DD005E
:10231800CC10DE00810070004410DD000001BE001A
:1023280000402200410F2000C6F907000000780095
:102338000000E90040118800340037001E01BE008B
:102348004418DD00CC10DE00810070004410DD0070
:102358000001BE0000402200410F2000B9F907002B
:10236800000078000000E9004011880027003700CD
:102378001E01BE004418DD00CC10DE008100700094
:102388004410DD000001BE0000402200410F200083
:10239800ACF90700000078000000E900401188004F
:1023A8001A0037001E01BE004418DD00CC10DE0004
:1023B800810070004410DD000001BE0000402200D2
:1023C800410F20009FF90700000078000000E90095
:1023D800401188000D0037001E01BE004418DD00C2
:1023E800CC10DE00810070004410DD000001BE004A
:1023F80000402200410F200092F9070000007800F9
:102408000000E90040118800000000000080FA0088
:10241800000006000200FA00000F78009E00780015
:10242800211188000080FA00000006000000FA0070
:10243800101180004800DE00614060000080FA0052
:10244800000006000000FA002D43A8002D63A80034
:102458002D83A8002D23A800C9E2A800C942A9001D
:10246800C9C2A900CBC2A800FDFD07000080FA0080
:10247800000006000000FA000080FA0000000600D4
:102488000000FA00EFFF07000080FA0000000600D5
:102498000600FA00E80057006400470001087800C9
:1024A8004F0037006800570010007800904078000F
:1024B80050C2B30080CF500040003A006800570077
:1024C800100078008000E8006800570001087800D4
:1024D8006800570010007800104078000000FB00EA
:1024E80021072000810F500015003200310720001D
:1024F800810F50002C003A0064004700100078005B
:102508008080E90064004700010878006400470003
:1025180010007800100F7800040037001E007800C3
:10252800104078001E0FE80055FD07001E007800D7
:10253800104078000004E000F8FF3A00230037005C
:1025480064004700100078008080E90064004700BC
:1025580001087800640047001000780080007800C7
:102568000E80E80011087800070037000E80E800A8
:10257800100078000080E8009000780010C0B300D8
:10258800010001003EFD07000E80E8001000780001
:102598006400400010007800000001000000E00026
:1025A800F2FF3A0009003700680057001000780071
:1025B8001040780032FD070004003700680057001B
:1025C80010007800104078002DFD070068005700C3
:1025D800100078008000E8006800570001087800C3
:1025E8006800570010007800104078000004E000F0
:1025F800ACFF3C000080FA00000006000000FA0072
:102608000080FA00000006000000FA001828EF0019
:102618001A28EF001C68EF001D68EF001E68EF0025
:102628001F68EF002068EF002168EF002268EF00C4
:102638002368EF000080FA00000006000200FA009C
:10264800004F780023C8BF000080FB0061006000D5
:102658000000E00021003A00D24080009E4078004F
:10266800E0C7200002004000014878001DC8BF00F4
:102678000080FB0000014000E1E7200081004100EC
:10268800910078000101E80080004000E0E72000A8
:102698000080400002087800D04080000000E80078
:1026A800D0408800D1408000F01F200000806000EA
:1026B800D040880023C8BF000024A10023E8B70049
:1026C800D1408000C0408000808F500003003A0055
:1026D80023C8BF000004A00023E8B7000080FA0068
:1026E800000006000200FA0023C8BF000080FB00BB
:1026F800640060000000E0002C003A00C140800047
:10270800E0C720000100400010407800004F78002A
:102718001CC8BF000080FB0000014000E1E720006A
:1027280081004100910078000101E900800040002B
:10273800E0E720000080400002087800C0408000E8
:102748000000E800C0408800C1408000F01F200061
:1027580000806000C040880023C8BF000004A100BA
:1027680023E8B700C1408000D0408000808F50002F
:1027780003003A0023C8BF000024A00023E8B700E4
:102788001CC8BF000080FB0080004000E0E720007C
:1027980000804000100078000000E00001003A00CE
:1027A8001E0007001E407800010037000040EB00C3
:1027B8000080FA00000006000200FA00D040800005
:1027C800000FEA0023C8BF008080FB000002200041
:1027D800008060000000E00005003A00C040800072
:1027E8009E004000F03F200000806000010037009C
:1027F8000000EB000080FA00000006000200FA006A
:102808001DC8BF00004FEA001CC8BF001E404000A2
:102818007F4060000080FA00000006000000FA0017
:1028280023C8BF008080FB000002200000806000F9
:102838000000E00011003A001CC8BF000040E8009A
:102848001CE8B7001CC8BF007F4060001CE8B70048
:1028580023C8BF000044A10023E8B700C1812000BD
:10286800914078001DC8BF0080CF500003003A0097
:1028780023C8BF000054A00023E8B7000080FA0076
:10288800000006000000FA0023C8BF000080FB001B
:10289800700060000000E00011003A001DC8BF0091
:1028A8000040E8001DE8B7001DC8BF007F40600079
:1028B8001DE8B70023C8BF000054A10023E8B700F3
:1028C800D1812000914078001CC8BF0080CF500003
:1028D80003003A0023C8BF000044A00023E8B70063
:1028E8000080FA00000006000200FA00004F78009D
:1028F80023C8BF000080FB00620060000000E00009
:102908001D003A001FC8BF000080FB009E407800F1
:10291800E2EB2000000041000148780021C8BF0018
:102928000080FB00E1FB200080804000914078009F
:102938008140E800E2FB20000000410001487800E7
:102948001FC8BF000040E8001FE8B70023C8BF0049
:102958000034A10023E8B700F181200091407800FD
:102968001EC8BF0080CF500003003A0023C8BF0034
:102978000014A00023E8B7000080FA000000060059
:102988000200FA0023C8BF000080FB006800600056
:102998000000E00028003A001EC8BF000080FB00CD
:1029A800E1EB20000080400010407800004F7800E4
:1029B80020C8BF000080FB00E1FB200080804000B1
:1029C800914078008140E900E2FB200000004100CE
:1029D800014878001EC8BF000040E8001EE8B700A4
:1029E80023C8BF000014A10023E8B700E18120003C
:1029F800914078001FC8BF0080CF500003003A0004
:102A080023C8BF000034A00023E8B70020C8BF00D7
:102A18000080FB0080004000E0E7200000804000CC
:102A2800100078000000E00001003A0019000700DB
:102A38001E407800010037000040EB000080FA00DB
:102A4800000006000200FA001FC8BF00004FEA009D
:102A580023C8BF000004E000030035001EC8BF0003
:102A68001E404000010037000040EB000080FA00E3
:102A7800000006000200FA0021C8BF00004FEA006B
:102A880020C8BF001E4040006F4060000080FA0070
:102A9800000006000000FA0023C8BF000004E000A0
:102AA8001700350020C8BF000040E80020E8B70044
:102AB80020C8BF006F40600020E8B70023C8BF00EF
:102AC8000064A10023E8B70020C8BF000080FB0015
:102AD800E1FB2000008040001040780022E8B700A9
:102AE800018220009140780021C8BF0080CF5000AB
:102AF80003003A0023C8BF000074A00023E8B70011
:102B08000080FA00000006000000FA0023C8BF0099
:102B18008080FB0000042000008060000000E000CE
:102B280011003A0021C8BF000040E80021E8B700C2
:102B380021C8BF006F40600021E8B70023C8BF006C
:102B48000074A10023E8B7001182200091407800AA
:102B580020C8BF0080CF500003003A0023C8BF0040
:102B68000064A00023E8B7000080FA000000060017
:102B78000200FA00218220009140780020C8BF009E
:102B88000080FB00E2FB20000000410010407800BC
:102B980000CF50001EC8BF001E4050001EE8B700FE
:102BA80020C8BF000080FB002182200091407800EF
:102BB800E2FB20000000410001487800E18120008C
:102BC800914078001FC8BF0080CF500003003A0032
:102BD80023C8BF000014A00023E8B7000080FA0053
:102BE800000006000800FA00009FBE000297BE0021
:102BF8001E407800E14F500080003A006500470011
:102C080010407800E14F50003C003A000E80E80088
:102C1800100078008000EB00823E20000289B90095
:102C2800020178006002B9008401780003014100C4
:102C3800833E20000300B8000101410082007800B3
:102C480061004000E080480067F70700D2CC2C0004
:102C5800C3FC230094F707000001BE0000402200D7
:102C680041B7240075F8070044F707000000780012
:102C7800201088000602A9000622A9000642A90021
:102C88000662A9000682A90006A2A90006C2A90038
:102C98006600470010407800E14F500002003A00FB
:102CA80006E2A8000100370006E2A9000702A90011
:102CB8000722A8000742A9000762A9000782A80006
:102CC80007A2A80064004700104078000080FB00BD
:102CD800501088000022EF000222EF0007E2A8004F
:102CE8006600470010407800E14F500043003A006A
:102CF8009620A8009600A80040003700650047000D
:102D080010407800E24F50003C003A000E80E80086
:102D1800100078008000EB00823E20000289B90094
:102D2800020178006002B9008401780003014100C3
:102D3800833E20000300B8000101410082007800B2
:102D480061004000E080480027F70700D2CC2C0043
:102D5800C3FC230054F707000001BE000040220016
:102D680041B7240035F8070004F707000000780091
:102D7800A01088001602A9001622A9001642A90070
:102D88001662A9001682A90016A2A90016C2A900F7
:102D98006600470010407800E14F500002003A00FA
:102DA80016E2A8000100370016E2A9001702A900E0
:102DB8001722A8001742A9001762A9001782A800C5
:102DC80017A2A80017E2A900640047001040780085
:102DD8000080FB00D01088001022EF001222EF00C4
:102DE80017E2A8006600470010407800E14F500045
:102DF80002003A009A40A8009A20A80000000000AB
:102E08000000000000000000000000000080FA0040
:102E1800000006000800FA00009FBE000297BE00EE
:102E28006500470010407800E14F500002003A006A
:102E38000942A900010037001942A9000080FA00E0
:102E4800000006000800FA00009FBE000297BE00BE
:102E58006500470010407800E14F500002003A003A
:102E680008C2A9000100370018C2A9000080FA00B2
:102E7800000006000800FA00009FBE000297BE008E
:102E88006500470010407800E14F500004003A0008
:102E9800401080004300DE006140600003003700FE
:102EA800C01080004300DE00614060000080FA002E
:102EB800000006000800FA00009FBE000297BE004E
:102EC8006500470010407800E14F500004003A00C8
:102ED800401080004A00DE006140600003003700B7
:102EE800C01080004A00DE00614060000080FA00E7
:102EF800000006000800FA00009FBE000297BE000E
:102F08006500470010407800E14F500004003A0087
:102F1800401080004400DE0061406000030037007C
:102F2800C01080004400DE00614060000080FA00AC
:102F3800000006000800FA00009FBE000297BE00CD
:102F48006500470010407800E14F500004003A0047
:102F5800401080000000D10061406000030037008D
:102F6800C01080000000D100614060000080FA00BD
:102F7800000006000800FA00009FBE000297BE008D
:102F88006500470010407800E14F500004003A0007
:102F9800401080004500DE006140600003003700FB
:102FA800C01080004500DE00614060000080FA002B
:102FB800000006000800FA00009FBE000297BE004D
:102FC8006500470010407800E14F500004003A00C7
:102FD800401080004600DE006140600003003700BA
:102FE800C01080004600DE00614060000080FA00EA
:102FF800000006000800FA00009FBE000297BE000D
:103008006500470010407800E14F500002003A0088
:103018000602A800010037001602A8000080FA0086
:10302800000006000800FA00009FBE000297BE00DC
:103038006500470010407800E14F500002003A0058
:103048000642A800010037001642A8000080FA00D6
:10305800000006000A00FA00004F78000E80E80021
:103068000498BE000690BE00670047001040780034
:10307800E14F50000C003A001E80FB001010880041
:1030880068004700104078000004E00011003A0092
:103098000000000040108000610060000000E000B7
:1030A800FCFF3A000B0037001E80FB0090108800E0
:1030B80068004700104078000004E00005003A006E
:1030C80000000000C0108000610060000000E00007
:1030D800FCFF3A000080FA00000006000A00FA002F
:1030E8000E82E800009ABE000292BE000040EB008B
:1030F800004F78006700470010407800E14F50000B
:1031080013003A0068004700104078000004E0000F
:103118000A003A000662A800000000000000000053
:1031280040108000620060000000E000FCFF3200F8
:1031380000108000004F7800030037000010800066
:10314800004F78000782A8001E4078001200370060
:1031580068004700104078000004E0000A003A00C8
:103168001662A8000000000000000000C0108000E7
:10317800620060000000E000FCFF32008010800068
:10318800004F78000300370080108000004F78005F
:103198001782A8001E4078000080FA000000060090
:1031A8000000FA000080EB0060198800E08220002F
:1031B800D1C4B3006400400001487800E0822000D8
:1031C800011920000080E80001087800E082200052
:1031D80021C0B3006500400001487800E08220006B
:1031E80011C0B30001487800E082200011C0B3008C
:1031F8006600400001487800E08220005001BE00CF
:103208004000BE0077FE07000080FA0000000600BC
:103218000000FA00E08220005001BE004000BE001D
:1032280014FF07000004E0000A003A00E0CFB300F2
:103238002CE8B70010C0B3002AE8B7002D68EF00EB
:10324800E08220005001BE004000BE0069FF070078
:103258000300370010C0B3002DE8B70000000000DD
:103268000080FA00000006000000FA0040418000DB
:103278000000E0000E003A00FEFD07000004E00038
:103288000E003200E08220005001BE004000BE0067
:10329800F8FE07000004E00008003A004041800002
:1032A8000000E00005003A00D9FF070003003700DE
:1032B800404180000000E900404188000080FA0099
:1032C800000006000600FA00E80057006400470006
:1032D8000108780010C0B30083FD07004F003700D5
:1032E80068005700100078009040780050C2B30082
:1032F80080CF500040003A00680057001000780066
:103308008000E8006800570001087800680057004E
:1033180010007800104078000000FB002107200012
:10332800810F50001500320031072000810F500036
:103338002C003A0064004700100078008080E90003
:103348006400470001087800640047001000780016
:10335800100F7800040037001E0078001040780035
:103368001E0FE80060FD07001E007800104078007E
:103378000004E000F8FF3A0023003700640047002B
:10338800100078008080E900640047000108780098
:103398006400470010007800800078000E80E80084
:1033A80011087800070037000E80E8001000780048
:1033B8000080E8009000780010C0B3000100010010
:1033C80049FD07000E80E800100078006400400006
:1033D80010007800000001000000E000F2FF3A0051
:1033E8000900370068005700100078001040780086
:1033F8003DFD070004003700680057001000780002
:103408001040780038FD0700680057001000780069
:103418008000E8006800570001087800680057003D
:1034280010007800104078000004E000ACFF3C0079
:10343800B5FD07000080FA00000006000200FA004F
:10344800E08220005001BE004000BE0089FE070057
:103458000004E00025003200224180003341800052
:103468000040800011408000800F5100818F59007A
:103478000F00360000408000114080000001BE00AF
:10348800C212B0000380B0002041800031418000AA
:10349800800F5100818F59001800310000408000D2
:1034A8001140800020418800314188001300370016
:1034B80020418000314180000001BE00C212B000EE
:1034C8000380B0000040800011408000800F510050
:1034D800818F5900090031000040800011408000B0
:1034E80020418800314188000400370000408000F6
:1034F800114080002041880031418800E08220008E
:103508005001BE004000BE00AAFE07000004E00013
:1035180004003200E08220005001BE004000BE00DE
:1035280048FE0700A4FC07000000E000220032006B
:103538006CFC0700004F78001E00FB00E10F5000F4
:1035480005003200E30F5000080032001600370073
:1035580064FC07000100370000000000A7FC07001A
:103568000004E000FAFF3A00130037005DFC070092
:103578008000FB0020052000808F500003003A00E7
:103588000700370057FC0700010037000000000063
:103598009AFC07000004E000FAFF3A00000000006F
:1035A800050037004FFC070094FC07000004E0000A
:1035B800FCFF3A000000000076C8BF00E14F500051
:1035C80007003A00E08220005001BE004000BE0023
:1035D80048FE07000004E000010032007668EF00B2
:1035E80024FD07000004E0000C003200E082200007
:1035F8005001BE004000BE001EFE07000004E000AF
:1036080006003A0076C8BF00E14F500002003A00B9
:103618007668EF0001003700FDFE07000080FA0021
:10362800000006000000FA0000042300203A880089
:103638000080FA00000006000000FA0042002000A6
:10364800A10F2000D00720003EF8070012C4B300E5
:10365800803E20000100200082F807000080FA0068
:10366800000006000000FA0040B42800801F78001F
:1036780010B52800801F780050B52800801F7800FA
:1036880010FF0700E68757002000200014F8070005
:103698000080FA00000006000000FA0004F80700A5
:1036A8000BF807006CF8070075FB0700D6FB07004E
:1036B800BBFE0700DBFF0700DFFF070036F8070047
:1036C80079F80700CDFB07005CFF0700FBFF370018
:020000040000FA
:1036D8007E080000500700000000000000080000FD
:1036E80078000000000000007808000004000000D6
:1036F800020000000200FF00FF0000007C0800003C
:0C370800020000000000000000000000B3
:020000040000FA
:020000040001F9
:0457F8009F79000095
:020000040000FA
:020000040001F9
:0457FC003F3F00002B
:00000001FF
:00000001FF

